:020000041100E9
:10000000900A001899000011A30000116F2600113A
:10001000E5390011FD0D0011C95800110000000064
:10002000000000000000000000000000AD00001112
:10003000C500001100000000C70000116D51001143
:10004000C9250011CB000011CB000011CB0000111D
:10005000CB000011010E0011CB000011CB000011EC
:10006000CB000011CB000011A5550011E155001186
:10007000CB000011CB000011CB000011CB00001110
:10008000DFF810D000F07AFB00480047455B001114
:10009000AFF30080900A00180C4880470C480047D6
:1000A000FEE7FEE7FEE7FEE7FEE7FEE70420714617
:1000B000084203D0EFF3098006490847EFF30880B0
:1000C00004490847FEE7FEE7FEE7FEE7A9510011F5
:1000D00081000011A100001140EA01039B0703D039
:1000E00009E008C9121F08C0042AFAD203E011F877
:1000F000013B00F8013B521EF9D27047D2B201E039
:1001000000F8012B491EFBD270470022F6E710B51C
:1001100013460A4604461946FFF7F0FF204610BD75
:10012000F0B480EA0102D40F4200B2EB410F02D2D8
:100130000246084611464A0042D0C30DDDB2C1F363
:10014000C752AD1A202D35DAC1F3160141F4000271
:1001500004B15242C5F1200602FA06F12A411044C8
:10016000B3EBD05F23D0C4B1012DA0EBC35009DCA9
:10017000F0BC4FF0004202EAC352DBB200F50000CF
:1001800000F070BA400000F1807000EBC350A0F1A5
:10019000807040EAD170490009E0490841EAC07125
:1001A000A0EBC35000F50000400800EBC350F0BCCA
:1001B00000F04FBA6142012202EB4101001BF6E759
:1001C000F0BC704781F00041AAE780F00040A7E74B
:1001D00080EA010210B502F00043400022D04A003C
:1001E0001FD0010E01EB1261C0F35600C2F356029C
:1001F00040F4000042F40002A0FB022000047F391A
:10020000140400D0401C50EA124001D44000491EA2
:10021000C2B20C0604EBD010401C4008802A02D069
:1002200003E0002010BD20F00100002900DA0020CA
:10023000184310BD30B480EA010202F0004530F0EE
:10024000004221F0004013D090B1C30DD40DC2F391
:100250001601C0F31600E41A41F4000140F4000254
:100260007D34914201D3641C00E04900002C02DA85
:1002700030BC002070474FF400000023914201D3AE
:10028000891A034340084FEA4101F7D151B1914225
:1002900002D14FF0004105E002D24FF0010101E030
:1002A0006FF0010103EBC450284430BC00F0D1B919
:1002B0002DE9FE4F81EA030404F0004421F00041DF
:1002C00000944FF0000B23F0004350EA01045ED08D
:1002D00052EA03045BD0C3F30A54C1F30A552C4419
:1002E000A4F2F3340194A0FB0254C1F3130141F4CE
:1002F0008011C3F3130343F4801301FB024400FB9A
:10030000034E840A970A44EA815447EA8357A4FBC0
:10031000076802958D0A05FB07854FEA932C04FBBD
:100320000C542705029D4FEA065847EA1637B5EBED
:1003300008056EEB070C870E920E47EA811742EA1A
:100340008312A7FB0201B6EB0B0164EB00042B0D3B
:1003500043EA0C335E1844EB1C50DA465146E7FB87
:100360000201C5F313044FEA0B3343EA14534FEA77
:100370000432019C43EA0603A4F10C040294009C9D
:10038000CDE900B400F0ABF903B0BDE8F08F002078
:100390000146F9E72DE9F04D81EA030404F0004B32
:1003A00021F0004514464FF0000A23F0004150EAC6
:1003B000050220D054EA01021DD0C5F30A570246B7
:1003C000C5F31303C1F31300C1F30A5640F48015BB
:1003D00043F48013A7EB0608101BD64608F2FD383D
:1003E00073EB050002D308F1010801E092185B41AC
:1003F000B8F1000F03DA00200146BDE8F08D0020BF
:100400004FF48011064684460EE0171B73EB050778
:1004100005D3121B63EB050306434CEA010C4908A4
:100420004FEA300092185B4150EA0107EDD152EAE1
:10043000030012D082EA040083EA0501084305D0D4
:10044000101BAB4106D20122002306E000224FF030
:10045000004302E06FF0010253101AEB06004CEB70
:10046000085110EB0A0041EB0B01BDE8F04D00F024
:1004700027B970B521F0004303430CD0C1F30A55EE
:100480000024D5EB040564EB0403D617AD1AB34181
:1004900002DB0020014670BD201841EB025170BD07
:1004A000C10F80EAE0700844CA079623002100F0DB
:1004B000D9B896230022114600F0D4B80EB540F208
:1004C000334102910021CDE900110A460B4600F0AC
:1004D00006F903B000BD00F0004220F00040C10D5D
:1004E000C0F3160040F400007F2901DA00207047B5
:1004F000962903DCC1F19601C84001E09639884095
:10050000002AF4D04042704720F00040C10DC0F3F3
:10051000160040F400007F2901DA00207047962978
:1005200003DCC1F19601C840704796398840704796
:1005300070B5C1F30A5201F000450024C1F3130164
:1005400040F2FF3341F480119A4201DA002070BD7D
:1005500040F233439A42A2F2334203DC524200F0AB
:1005600068F800E090402C43F1D0404270BDC1F3E8
:100570000A5210B5C1F3130140F2FF3341F4801168
:100580009A4201DA002010BD40F233439A42A2F2AF
:10059000334203DC524200F04CF810BD904010BDD5
:1005A00000F0004230F000400AD0C10D01F560714A
:1005B000C0F3160042EA0151C208400711437047D8
:1005C00000200146704701F0004330B421F00041A3
:1005D00050EA010206D00A0DA2F56072C1F31301C0
:1005E000002A02DC30BC00207047440F44EAC104FA
:1005F000C100E01830BC00EBC25000F02AB8000087
:10060000002801DBC0F10040002901DBC1F10041FD
:1006100088427047202A04DB203A00FA02F10020C9
:1006200070479140C2F1200320FA03F31943904030
:100630007047202A04DB203A21FA02F0002170479B
:1006400021FA02F3D040C2F120029140084319463A
:1006500070470029A8BF7047401C490008BF20F020
:100660000100704710B4B0FA80FC00FA0CF050EAB8
:10067000010404BF10BC704749B1CCF1200421FA39
:1006800004F411FA0CF118BF012121430843A3EB34
:100690000C01CB1D4FEA00614FEA102042BF002041
:1006A00010BC704700EBC35010440029A4BF10BC1D
:1006B0007047401C490008BF20F0010010BC704783
:1006C00010B5141E73F1000408DA401C41F100015A
:1006D00092185B411A4301D120F0010010BD2DE9B1
:1006E000F04D92469B4611B1B1FA81F202E0B0FAA8
:1006F00080F220329046FFF78DFF04460F4640EA15
:100700000A0041EA0B0153465A46084313D01146EA
:1007100053EA010019D0C8F140025046FFF789FFA3
:1007200005460E46504659464246FFF773FF0843BA
:1007300005D0012004E020463946BDE8F08D0020B8
:10074000054346EAE0762C4337430A986305E40AFA
:10075000A0EB08000022FD0A44EA47540A3002D503
:1007600000200146E9E7010510196941DDE9084566
:1007700000196941BDE8F04DA2E70000064C074DA5
:1007800006E0E06840F0010394E807009847103461
:10079000AC42F6D3FFF778FC04720011247200110A
:1007A00070B58C1810F8015B15F0070301D110F833
:1007B000013B2A1106D110F8012B03E010F8016B60
:1007C00001F8016B5B1EF9D12B0705D40023521EE3
:1007D0000DD401F8013BFAE710F8013BCB1A921C4B
:1007E00003E013F8015B01F8015B521EF9D5A14249
:1007F000D8D3002070BD0000074A0346A2EB810158
:1008000000200A6802F40032520C04D00868C0F3D9
:100810008900188001207047704000404FF0402050
:100820004FF440714160502181610021C161821506
:100830000265164A82608213C26041624FF00A323A
:1008400082624FF00A12C2620167C1668166416628
:100850000166C16581650164C1670D4921224A6055
:1008600001228A614FF0502212F8603F23F0010309
:100870001370021D136843F440731360026842F062
:1008800001020260001508607047000001000500C9
:100890000080014811480021416140F201728261EB
:1008A0000222C2610E4B40F8803B0E4B40F80C3BDD
:1008B0000D4B40F8083949F6292340F80C3B4BF61C
:1008C000894340F85C39094B436582644264416165
:1008D0004166016781664167C167704700C0014892
:1008E00001000200002F2F18008ABEC0CD9ED3C683
:1008F0002DE9F05F9946DDE90C63DDE90A74DD79E5
:100900004FF000084FF0010CBDB11D7A4FF0020E00
:100910004FF0030B4FF0FF3A012D15D0022D2CD0D4
:10092000032D3DD0A04256DA1D88954253D383F85B
:1009300008B081F800A0BDE8F09F83F807C083F8F5
:1009400008C083F80980F6E75A7A2AB193F90600BD
:100950005045ECD098BB2DE0484502DD83F806C039
:1009600006E0A04202DA83F806A001E083F80680E0
:100970009879087083F809C0DDE7A04202DA1D8883
:100980009542D4D2B84202DA9D88954212D21A4AD0
:10099000791E7F1E974200DA1146024609B226E010
:1009A000484502DD5C8894421AD2B04208DD9C883A
:1009B000944205D30420187281F80080BBE70FE051
:1009C000741C761CB6F5004F01DB47F6FF74024637
:1009D000494620B20CE0484507DD5D88954204D3C6
:1009E00083F808E081F800C0A5E7024649462046A2
:1009F000BDE8F05F04F03CBF0080FFFF0022CA7139
:100A00000A720A804A808A808A714A72027070472C
:100A10007FB56FF02503CDE902329D1E87248C231C
:100A20000A22CDE90045FFF763FF7FBDFFF7E6BF70
:100A30001A4810B500680021018038211848FFF7D6
:100A400064FB1748CA213830FFF75FFB1C211548AB
:100A5000FFF75BFB134810211C30FFF756FB104BD0
:100A60006033A3F14B02511E481E04F04BFB03F010
:100A70006FFD0C4A143AA2F1DD01481E00F0BDFFE3
:100A80000748803003F042FB0549563101F1D6009A
:100A9000FFF7B4FFBDE8104001F0E4BCB05D001109
:100AA0005C0500185E0600182DE9F0478AB003F0D7
:100AB0001FFCDFF8BC816F4DD8F8000005F11C0663
:100AC000A5F58177407898B9A5F1A2000090707BD8
:100AD00018B1287E08B1012000E00020654BED3BF5
:100AE0005A1E511E04F0D5FA387D7070787DB070B2
:100AF000A88970B10020DFF87C91B874A9F1CA0907
:100B00005022B9F802000028688B04D00F2806D9BB
:100B100008E00120EFE7142801D9012407E00024B0
:100B20007A8127E00124142801D8FA2021E080B23C
:100B3000642802D34FF461701BE0A0F114018142DC
:100B400000D9002140F28A204143B1F5803F01D312
:100B50004FF6FF7188B2B0FBF2F000EB8002A1EB20
:100B600002110904090C03D0282901D3401C80B2CA
:100B7000FA30788103F0FEFBB7F90C30B5F9162096
:100B8000697DF87C03F0CBFA8246D8F80000407803
:100B900080B93848374B1438A0F1DD014A1ECDE941
:100BA000002102902A79B5F90210B5F90000E73B5F
:100BB00000F004FF2F49823901F1A802501ECDE94F
:100BC0000602431E05930891287D297C02AB09AAE1
:100BD000019183E84500E87B0090AB7B6A7CF97E5D
:100BE000504603F0D5F96FF0250122488B1EAC3832
:100BF000CDE902108222CDE900231E49B5F9020099
:100C0000872364222A31FFF773FE96F90E0000282D
:100C10000EDDBDF9240040F2F641884201DDB180CD
:100C200000E0B080D8F800004546407818B10DE0EB
:100C3000BDF82400F5E701F00BFBB87EF0702868E2
:100C4000407818B9387CB071787CF071B87DF0725A
:100C5000A9F80240286829684078401CC0B2487052
:100C6000092802D92968002048700AB0BDE8F08739
:100C7000B05D00115E06001870B50D4D0E49287864
:100C8000401CC4B20B482C708068FFF7D3FA0646AC
:100C90002046FFF70EFC3146FFF7B2FC03D80020D8
:100CA000287002F043F805480188491C018070BD96
:100CB000D8010018A000001800007A444A0000186B
:100CC00001490860086070475460005010484CF6B5
:100CD000162141620F490162EFF3108111F0010FFB
:100CE00072B60D4B4FF098021A700C4A82614FF0A9
:100CF000A8021A7000D162B6094981600021016022
:100D000041600161416107488160042101627047CF
:100D1000004003400100550CAC500050011E1E0065
:100D20005151020100800148F0B540EA0107174324
:100D30000024FF07DDE9056557EAC37C164F05D19E
:100D40005FEAC67C02D15FEAC57C08D04FF0013C67
:100D5000C7F800C040F2011CC7F804C000E001243D
:100D600043F001031B0641F0010143EA014142F057
:100D7000010241EA0221014341F00100386045F0DF
:100D8000010046EA002040F001007860002C02D00B
:100D9000002038607860F0BD00400340F0B5038863
:100DA0008B4205D35C1AA34200D20024A5B200E016
:100DB00000254FF4803719447E1EB94200D33146D6
:100DC0008CB289B24FF47A73994200D91C46012142
:100DD0001180002100EB41035B88AB420ADBA34298
:100DE00008DC13889C465B1C0CF1010CBC4500D34D
:100DF00033461380491C0529ECDBF0BD7047000029
:100E000070B5114CB4F84400104D400607D5B4F845
:100E10006800400603D504F0DFF940202880B4F8CC
:100E20004400000607D5B4F86800000603D504F0B6
:100E3000F5F9802028804FF0502090F8901141F073
:100E4000100180F8901170BD00C000400CC000403F
:100E50001B488021018640F2572181841921018598
:100E60004FF4E6618185002120F8141F8180018103
:100E7000182282816622A0F84420A0F84C1048F283
:100E80003F02A0F84820A0F8401040F2333220F88A
:100E90002C2F01824FF480610181C02120F8041FB2
:100EA0004FF4A85181874BF225310185022101863B
:100EB0000348001D4021018001140180704700009B
:100EC00000C0004003480121C160016841F4806115
:100ED000016070470080014810B502464FF6FF7070
:100EE000064C08E012F8013B83EA102334F8133073
:100EF00083EA002080B28A42F4D310BDDC5D001189
:100F000010B5002303E0CC5CC4545B1CDBB29342FD
:100F1000F9D310BD30B5B1F900505C10854203DD46
:100F2000B2F9000030BD641E31F91450854203DD72
:100F3000002CF8D100E0641C9C4205DA01EB44056A
:100F4000B5F902508542F6DD01EB440531F8141085
:100F50006D88401A6D1A00048009ADB2B0FBF5F13E
:100F60009C4202D132F9140030BD02EB4400B0F9CA
:100F7000023032F914001A1A4A4300EBA22000B2E0
:100F800030BD03004FF0000007D013888B4202D21F
:100F90005B1C13807047012070470021118070474F
:100FA000034802498160002181627047000A0018ED
:100FB0000040015008B500211F2806D2054901EB69
:100FC0004000C088ADF8000000E00091BDF80000CE
:100FD00008BD00002002001810B503F069FE0F4C98
:100FE000606003F05FFE4622A06062800C4960688A
:100FF00003F016FF04F02CFD38B962880849A06898
:1010000003F00EFF04F024FD20B104F0A1FD012047
:10101000607010BD04F006FDF9E700002400001820
:10102000200200182DE9F041904F914D97F90610DC
:101030002888002902DD40F0010001E020F00100D5
:1010400028806888C90F61F300006880884897F994
:1010500007108088002902DD40F0010001E020F047
:101060000100A880E888C90FDFF8088261F300005A
:10107000E880B8F80C102A8961F30002B8F80C1067
:10108000B8F80C004B08698963F300018308A8894C
:10109000794E63F300003B7A63F388022A817A7AFF
:1010A00062F388016981B97A61F38800A881698A4D
:1010B000306860F300016982A98A420862F3000186
:1010C000A982E98A820862F30001E982298BC208B9
:1010D00062F300012983698B020962F300016983CD
:1010E000A98B420962F30001A983E98B820962F3AB
:1010F0000001E983298CC20962F300012984698C0B
:10110000020A62F300016984A98C420A62F30001B9
:10111000A984E98C820A62F30001E984298DC20A5C
:1011200062F300012985A98D020B62F30001A985F4
:10113000E98D420B62F30001E985298E820B62F38F
:1011400000012986698EC20B62F300016986A98EAF
:10115000020C62F30001A986E98E820C62F30001A1
:10116000E986298FC20C62F300012987010D688F7F
:10117000002461F30000688715F8140000F00101F5
:10118000204604F071FD042C3DD0052C3BD0062CEC
:1011900039D015F81400C0F3400200F001012046D8
:1011A00004F07EFD35F81400014660F3410125F896
:1011B0001410641CE4B21F2CDED3304C00252078C0
:1011C00010B1257004F02EFC607800284BD02C491B
:1011D0000888412847D9B0F5877F44D2B1F93C004F
:1011E00010F1230F3FDD96283DDAB8F80200002801
:1011F00039D197F90600401C18D03088800415D4E6
:10120000787898B90FE035F81400420AC0F38601E7
:10121000204604F045FD35F81400810861F34F20A5
:1012200025F81400BEE7B87800281CD030684003C9
:1012300006D56188606803F04DFB3068400312D426
:10124000657004F09DFB0A494639A1F844006288A4
:10125000606803F0DDFE6288A068BDE8F0410449E3
:10126000463903F0D5BEBDE8F08100007A060018CB
:1012700066020018FC010018D401001824000018B0
:10128000E8030018F0B55C888C4203D1B3F9004044
:10129000844201D0012500E000251E7A02244FF08F
:1012A000010C03273EB15E7A012E0CD0022E1ED017
:1012B00021B1FDB120E083F808C009B95C7214E0E7
:1012C0005F72DC800EE00029F8D0002DF8D1DC88B8
:1012D0008C420AD2651C641CB4F5803F01D34FF6E2
:1012E000FF75DD809C88148006E0108004E00029F2
:1012F000FBD0E5E783F809C05980188010889880F2
:10130000F0BD00220A724A72CA8002807047F0B5AE
:101310005C888C4203D1B3F90040844201D001259E
:1013200000E000251E7A02244FF0010C03273EB195
:101330005E7A012E0CD0022E1ED021B1FDB120E02C
:1013400083F808C009B95C7214E05F72DC800EE0BB
:101350000029F8D0002DF8D1DC888C420AD2651C17
:10136000641CB4F5803F01D34FF6FF75DD809C8887
:10137000148006E0108004E00029FBD0E5E783F844
:1013800009C05980188010889880F0BD00220A7228
:101390004A72CA800280704710B54FF0E02291690E
:1013A0004FF47A7407E093698B42FCD393698B42C4
:1013B000FCD8A0F57A70A042F5D200EB4000C10045
:1013C0009069884206D3431A9169994201D98142B2
:1013D000FAD310BD5369091A5B1A91698142FCD393
:1013E00090699842FCD810BD154A10B5B2F8560065
:1013F0004FF496735843000B9080B2F858000021C8
:101400005843000BD080B2F85A005843000B1081AB
:1014100002EB41004FF49674B0F85C30491C634312
:101420001B0B4381B0F86830C9B263431B0BC38206
:10143000B0F8743063431B0B43840629E8D310BD16
:10144000E803001870B5204D00242046296821F4D7
:10145000807129601C4A243206E0401CC0B2C828B2
:1014600001D9012400E00024116811F0010F01D01E
:10147000002CF2D000200CBB4FF04022116821F06C
:10148000700141F010011160116841F00401116018
:1014900006E0401CC0B2C82801D9012400E00024A5
:1014A000116801F00801C90801D01CB106E0002C48
:1014B000EFD003E00549342003F0BAFB286840F47C
:1014C00080702860204670BD5040004068040018BD
:1014D00070B50E4D4FF4FA6400262C806C80AE80FF
:1014E00047F6FF70E88000F013F8A5F19C0108882A
:1014F0004880C003A86001F1A8004FF630010480C5
:1015000044808180C480866070BD0000840400181F
:1015100070B54A49222003F08BFB48492320891CDF
:1015200003F086FB45492420091D03F081FB434954
:101530002520891D03F07CFB40492820083103F059
:1015400077FB3E4926200A3103F072FB3B492720F6
:101550000C3103F06DFB394929200E3103F068FB93
:10156000364C3749423C0026B4F85000C0EB00101E
:1015700001EB4010E72190FBF1F0A08704F152014C
:10158000142003F055FBB4F8525040F2E131A5F1BC
:101590000A00884294F898000CD820F00200294AEA
:1015A00084F898002723A2F1500128B2FFF7B2FC7B
:1015B000064603E040F0020084F898001F49668761
:1015C000891E212003F034FBB4F8400040F2EC41C6
:1015D0004843062505EB9020208001B217485A3079
:1015E00001F0F0F86080FFF7FFFED4F884104FF4AC
:1015F0007A7091FBF0F140F6EC72514391FBF0F000
:1016000011494978012904D0022904D0032906D1BF
:1016100003E0401003E0801001E090FBF5F001B220
:10162000A18629B10548663001F0CCF8E08670BD8E
:10163000024900206631E086886070BD2A040018E7
:10164000D8FBFEFF605D0011EC5C0011027A41687E
:1016500022B1012901D9491E00E00021008800EBD8
:101660000140704770B5002403F03CFB002847D0D0
:101670002449254E0025897A71B17179491CC9B276
:10168000717101290DD002294FF0010411D086F8A3
:10169000BC5086F8BD5028E086F8BC5086F8BD5096
:1016A00027E096F8BC10C1EB011106EB8101143163
:1016B00015E096F8BC20C2EB0211521C06EB81012A
:1016C000D2B22C3186F8BC20032A01D386F8BC5054
:1016D00096F8BD20FF2A02D2521C86F8BD2021B107
:1016E00008803068486030790872012086F8BE00B2
:1016F0002CB103F0ABFB03F0E3FB35607571357182
:1017000070BD0000DE0100189C04001810B503F045
:101710003FFB002815D00B4C4FF6FF712068884224
:1017200001D2401C206003F02BFB30B103F0DAFA49
:101730004FF61741884202D808B1002000E001208E
:10174000207110BD9C0400182DE9F84F514D002464
:10175000A87A002877D003F0BDFA2881EA884FF4F0
:101760007A79DFF834A1A846A3464A456DD29AF8A3
:10177000BD10002976D09AF8BC6098F80A00009055
:1017800088F80AB0671CBE42A6EB040001D3401ED5
:1017900000E0801CC0B203283CD2C0EB00110AEB71
:1017A000810505F114000835FFF750FF686305F166
:1017B0002400FFF74BFF696B4FF6FF73421A184680
:1017C000AA6303D03548B0FBF2F080B23149091F5B
:1017D00021F814003248696B814201D948460AE079
:1017E0003048814201D9642005E02F48814201D967
:1017F0000A2000E00120B1FBF0F1B2FBF0F04FF461
:101800007A75694310B1B1FBF0F083B22148801EB4
:1018100020F8143017F0FF04B4D01E484246001FD1
:101820000088A8F800001B48B8F80210801E008845
:10183000431D8B4202D9491D884200D35080009835
:1018400088F80A000EE023E0FFE7494643468A4253
:1018500008D98AF8BDB08AF8BCB0A3F800B000B1CE
:1018600000215980B8F802004146C0F57A70A8F806
:1018700004009AF8BE0018B158468AF8BEB005E0D8
:10188000C8884FF6F572904202D20A30A8F80600D6
:10189000BDE8F88FDE0100189C040018C0E1E400E8
:1018A00099999919285C8F023789410010B5002257
:1018B000C2F10403C2F1050431F81330521C21F8BF
:1018C0001430052AF4DB088010BD2DE9FE431F46C5
:1018D000DDE90C45DDE90A890B460100287B164647
:1018E00053D020B9284600F060F801202873C7B310
:1018F000002004EB400235F81010401C51800628EF
:10190000F7DBA11C1846FFF7D1FF00204FF47A73D4
:101910006A4604EB40014988994201D8012100E060
:1019200000211154401C0628F3DB9DF80010002014
:1019300021B11118497809B1012100E00021401CB2
:101940000528F5DB89F8001061B102AA1421A01C5A
:10195000FFF724FABDF80800042803D3608820802C
:1019600001E005E026801FB12188A8F8001001E001
:10197000A8F80060002004EB4001498825F8101009
:10198000401C0628F7DBBDE8FE830028FBD00020C2
:101990002873F8E700224FF4FA6321F81230521C42
:1019A000062AFADB00210180704700214FF4FA6219
:1019B00020F81120491C0629FADB70472DE9F04771
:1019C0001D46DDE909640B469046814631461846BE
:1019D00004F10A02089FFFF71BF8224639464846E1
:1019E00003F073FF387820B9307810B95FEA080047
:1019F00000D001202870BDE8F08770B514460A4673
:101A0000054604F10A011046FFF710F82146284662
:101A1000BDE8704003F066BF03F06EF903F0D2F842
:101A2000FFF7DAFAFFF754FD03F0BEFF01F0DCFF29
:101A3000FEF7FEFF03F0E8F8DFF834914D4FDFF8D2
:101A400038A14E4DDFF838B14E4C4FF0010800265A
:101A500060880528FCD36680A08838B9A4F8048083
:101A6000387818B100F0D0F900F098F9E08830BB70
:101A70000220E080FFF768FEFFF74AFD02F06EFFEC
:101A800004F08AF8FFF710F83F4890F89800C00774
:101A900005D13E480068010301D4C00202D585F893
:101AA0000280AE803A492878887201F0DFFFB5F9EC
:101AB000040001F0ADFF387808B100F085F9208905
:101AC00080B90A20208103F0A7F800F0EFF903F0B5
:101AD000FDFB38789AF80010084300D001202070F0
:101AE00003F0B8FD6089A8BB14206081207880B91C
:101AF000E878617818B141B902F002FF07E021B13E
:101B000089F80A6003F0ECF901E089F80A00E87846
:101B10006070FFF787FA207808B9687860B938787C
:101B200010B11C48007838B99AF8000030B11A4852
:101B3000007818B1687808B103F04EF8A87808B1B9
:101B400003F07EF9DBF8000010F1650F02D264307B
:101B5000CBF80000A088401EA080E088401EE080F6
:101B60002089401E20816089401E608170E700004E
:101B7000DE01001854000018720000187A060018E0
:101B80004400001848000018E8030018D4010018A9
:101B9000FC01001857000018730000180148007875
:101BA00070470000300000180248002141740174A1
:101BB00041707047A4020018082802D20249085C4C
:101BC0007047FF207047000039000018082802D233
:101BD000014A0021115470473900001870B503F014
:101BE00029F9304C012100256174257462780AB30B
:101BF000012A32D0032A3ED0052A1AD1E27804F114
:101C00000C015054E078401CC0B2E070022810D3A0
:101C1000A089E18940BA81423FD1234920780870E8
:101C20002148A278211D0930FFF76AF965706574B3
:101C3000257470BD07280DD006DC01280AD00328C2
:101C400008D0052804D105E0102803D0202801D0B1
:101C5000002023E02070617070BDC0432178C0B2C5
:101C6000814206D1032060700820A070E570E581F4
:101C700070BD012012E00B49E278091D5054E18942
:101C80000844E081E078401CC0B2E070A17888424E
:101C9000EED305206070E57070BD0220BDE8704095
:101CA000FFF782BFA40200183000001810B5094CDD
:101CB00007210822617020700020E070E081A2708E
:101CC0000549201DFFF71CF92078BDE8104003F0FE
:101CD000C3B90000B60200183100001810B5184C46
:101CE00021466078C98902280CD0042824D006280F
:101CF0001DD0072815D12078C043C0B203F0ACF93D
:101D000002201AE0E078A27890420BD20C4A121D11
:101D1000835C1944E181805C03F09EF9E078401C0B
:101D2000E07010BD080A03F097F9062005E0C8B27C
:101D300003F092F9042000E00920607010BD00005B
:101D4000B6020018012202EB400010B5C0B208280C
:101D500007D201F50041034A0B0A141804F8013CAC
:101D6000115410BD31000018012202EB400010B5E3
:101D7000C0B2082807D201F50041034A0B0A141823
:101D800004F8013C115410BD31000018082801D29C
:101D9000014A115470470000310000180948817948
:101DA000012904D0407900280AD102F0A9BD417D63
:101DB00019B10021417503F093B801214175F4E791
:101DC000704700005400001870B50E4C607988B15F
:101DD000207D002520B12575BDE8704003F080B856
:101DE0000126267502F08CFDE079002801D065718E
:101DF000A67170BDA0790028FBD1BDE8704002F04B
:101E00007FBD00005400001870B52748254C30F8FD
:101E1000562F237941888088012B0ED0052B24D1A1
:101E2000A378002B21D0637A0125042B1ED8E68AE3
:101E30005B1C3244E28263721DE0637A082B04D299
:101E4000E58A5B1C2A44E2826372A27A082A04D2E1
:101E5000238B521C19442183A272E17A082904D2EF
:101E6000628B491C10446083E17270BDE28A432A90
:101E700001D92572E571A27A042A05D8238B521C58
:101E800019442183A27204E0218B432901D92572D0
:101E9000E571E17A0429E3D9608B4328E5D92572FD
:101EA000E57170BD54000018E80300182DE9FC47E7
:101EB0000025C14F0095019538782C460126E8B9D8
:101EC000387BD8B1401E3873FFF768FE387101289F
:101ED00015D10020FFF770FE012810D10420FFF774
:101EE0006BFE05280BD10720FFF766FE082806D1F8
:101EF0003E703D73002001F08BFD00E03D733878AB
:101F000000287DD0FFF74AFE3871032802D07D708B
:101F1000052802D07D71BD71FD714FF0040C4FF0AA
:101F200003094FF00208012807D003281DD0052817
:101F300067D00728BD7374D12BE1BE7387F80F807B
:101F400005208DF8040006208DF805008DF800604E
:101F500007208DF801808DF806008DF8029008208A
:101F60008DF803C08DF8070015E1787B03282ED08B
:101F70003D747D74BD747A7ADAB1B97AC9B1F87AF0
:101F8000B8B1FB8AB3FBF2F23B8BAD3AB3FBF1F194
:101F90007B8BB3FBF0F040F22B339A4209D24FF423
:101FA0007672914205D2AD2903D3904201D2AD2879
:101FB00001D23E7200E03D72FD823D837D837D72E1
:101FC000BD72FD72387A28B97E70BD7002E0387C2F
:101FD000FF2802D2387C401C3874C0B204281DD9B6
:101FE000BE7387F80FC0B87C7449754A8DF800003D
:101FF000C0B1744B012836D0022851D0032801E02B
:102000000CE0BDE06AD0BD73BD74387A30B18DF894
:1020100001508DF802508DF803500195B87B0128CE
:102020007DD0C5E0BE740878136800F0F000C3F3FB
:10203000074340EA13108DF801001068C0F3034213
:10204000487862F31F108DF8020088788DF803003D
:10205000C8788DF8040008798DF8050048798DF866
:102060000600887919E087F81280C8798DF8010098
:10207000087A8DF80200487A8DF80300887A8DF886
:102080000400C87A8DF8050033F8400F40F269115A
:102090004843000A8DF8060098788DF80700B4E7E9
:1020A00087F8129093F844008DF8010093F84600E9
:1020B0008DF8020093F848008DF8030093F84C0067
:1020C0008DF8040093F84E008DF8050093F84A004F
:1020D0008DF8060093F83C005030DEE7787C18B1AC
:1020E000BD73BD747D7490E793F83A0050308DF85D
:1020F0000100B3F88400010A8DF802108DF8030086
:1021000031488088010A8DF804108DF805002F48A9
:102110000068010301D4410302D5012101E03AE046
:102120000021CB01C10703D1010701D4C10601D5AC
:10213000012100E0002143EA8113810607D4410612
:1021400005D4010603D4810701D4410701D501213B
:1021500000E0002143EA4111C30503D4830501D403
:10216000400501D5012000E0002041EA00108DF873
:1021700006001079C0F303108DF807007E7444E761
:10218000787B052800D03D72BD73B87980B97E7127
:102190000EE0FE700CE0BD736D462046295DFFF732
:1021A000F5FD641CE4B2082CF7D3F87BFFF77EFD45
:1021B00038797873BDE8FC8754000018EC7F001173
:1021C000C85C0011E8030018DE010018D4010018F3
:1021D00070B51E4C012520466278808B0021D2B15B
:1021E00041F28832904205D2C83080B2A08390423A
:1021F00000D9A283A170E07CC8B101281DD00228BB
:102200001FD002F0FBFDE574A08BBDE870400246D4
:10221000014602F029BEC82802D9C838A083E9E7E0
:10222000A570E174A183BDE8704002F0B1BAE57415
:1022300002F09AFE02F0BEFDE6E702F0BBFD0220CE
:1022400002E002F0C9FD0320E074DDE7540000184D
:102250002DE9F84760480090604B002201212320BF
:1022600000F0C4F85D4C8046363CA08900286AD056
:1022700059480E380090207C08B1012100E000216F
:10228000564B00229B1E4FF4967000F0AFF882462A
:1022900051481C38009094F91100002801DD0121FB
:1022A00000E000214D4B00221B1F104600F09EF85D
:1022B000814649484A4D38380090484BA97B083B35
:1022C00000224FF4167000F0ACF807464248434B2A
:1022D00046380090297C0A3B00224FF4617000F0E0
:1022E000A0F806463C483D4B54380090E97B0C3B37
:1022F00000224FF4C86000F094F8054636482A38AA
:1023000000903848807B08B1012100E00021334B68
:1023100000229B1F104600F069F80FB1002013E067
:102320000EB1012010E0B9F1000F01D002200BE046
:102330000DB1032008E0BAF1000F01D0042003E042
:1023400008B1052000E00620B8F1000F15D026499D
:1023500001EB400188894A8B1F4D0023A83D0227CD
:10236000297F012661B1697F012915D0A98A012938
:1023700028D838B36E77A37622E000200122EBE75D
:102380002E77AA82688218B16E77A376BDE8F887A7
:102390006F77A6766B82F9E7698A012904D8B5F8C8
:1023A00014C0BCF1000FF3D1A37631B14A1E481E10
:1023B0008A4200D900206882E8E7A98A0029E5D18D
:1023C000AA82F8E7A6760029E0D04A1E481E8A4273
:1023D00000D90020A882D9E73C0600189205001811
:1023E0005E0600187A060018B45D0011F0B50E46BE
:1023F000059C1F461546A178B14201D2054603E06F
:10240000E078B04200D825883A4629463046231D58
:10241000FEF738FF388800B10120A670E6702580ED
:10242000F0BDF0B50E46059C1F461546A178B14299
:1024300001D2054603E0E078B04200D825883A464C
:1024400029463046231DFEF762FF388800B101207F
:10245000A670E6702580F0BD091DFEF797BF091D27
:10246000FEF74FBF00B51A491A48FFF7F8FF1849A1
:1024700018480E39801EFFF7F2FF154915481C3920
:10248000001FFFF7ECFF1249124838390838FFF7F0
:10249000E3FF0F490F4846390A38FFF7DDFF0C49C3
:1024A0000C4854390C38FFF7D7FF094909482A3935
:1024B000801FFFF7D4FF06480021A8384FF6FF72AF
:1024C000017741774282828202483638817600BDA8
:1024D0003C060018920500182DE9F04302460879E1
:1024E000D51C022640F6154840F2CA3901234FF4A4
:1024F000803C4FF6FF7740B14879012811D04C88D5
:10250000142C22D34B7100201DE0D01C0B716545AB
:1025100000D338464245F5D84845F3DB4E710120DB
:1025200023E00C88142CF9D2002040F64805A2F2D2
:10253000CA32AA4207D8651C641C644500D33D46D4
:102540000D80BDE8F0830B80FBE701202E4665453A
:1025500000D33E46424501D84E4506DA621C641C53
:10256000644500D33A464A80EBE74B80E9E7002216
:102570000A714A710A804A800270704700220A710B
:102580004A710A804A800270704700000D4800219D
:1025900001814FF650320284C21482814FF6FF72DD
:1025A000828401824FF6A85303858182511E818562
:1025B0008114018302864FF6F771818348F65E41EC
:1025C000818070470000014070B54FF0502494F8AE
:1025D0005C010C4DC00707D094F86001C00703D020
:1025E00000F012F80120287094F85C01400707D52C
:1025F00094F86001400703D500F038F804202870F3
:1026000070BD000064510050144810B501781448A2
:102610000029018C07D04FF6A852114401841148BB
:10262000007840B109E04FF6503211440184BDE812
:10263000104000F049BAFFF7CBFD4FF04020016F8A
:10264000C1F30B02084921F8562F826EC2F30B0228
:102650004A80406EC0F30B00888010BD5400001803
:102660000000014056000018E8030018704770474A
:1026700010B54FF05020002100F8191BC172FF2344
:10268000C373C175C022C276C17780F823100522BA
:1026900080F84321164A4FF0FF145462154C5461E0
:1026A0001162916280F8BB109C02D465134C124AEF
:1026B0002260241D124A2260241D124A2260241D19
:1026C0004FF0F03222604FF0E02440F62142C4F88F
:1026D00000218022C27080F86B3180F86F3180F861
:1026E0002B1180F82F1108494FF04050086010BDA1
:1026F00000600050C7FF3F3F20F0F00000E400E022
:10270000F010F0F0F0F0303020ED00E07047000005
:102710000249212081F83400704700000040005039
:1027200070B502B2151E00DA6A4203141C4600D5C9
:1027300063422248224E93421CDC1AB19B02B3FB37
:10274000F2F301E04FF4806330F8130036F81330F1
:102750005343DA0B0A80002D04DD002C25DAC0F586
:10276000803022E0002C02DBC0F500401DE000F5C7
:1027700000401AE09202B2FBF3F230F8120036F891
:1027800012205A43D20B0A80002D07DB002C02DDF9
:10279000C0F5804009E000F5404006E0002C02DD75
:1027A00000F5804001E0C0F54040B0F5803F02D325
:1027B0004FF6FF7070BD80B270BD0000DC5F00118D
:1027C000DE670011B0F90030826803FB0121B0F927
:1027D0000230D21303FB1211B0F9042001F31E01E1
:1027E000D203914204DBB0F90620D203914200DD0E
:1027F0001146816041F3CF30704700000D49002041
:1028000001F138020882C87388730B4B81F83600D7
:1028100010709B88D3801082908250819081D081EB
:1028200047F6FF708885C2434A850886CA85888630
:102830004A86704790030018580300182DE9F047A6
:102840009D4B9E4C00261B8804F138053F2B02D27D
:1028500084F836605CE04FF00108442B02D984F81C
:10286000368002E094F83630EBB3A38C4FF00309C6
:102870000344E08C0844218D0A44191A801A09B2D5
:1028800000B2D21A13B20A18D718B7FBF9F2618353
:10289000A083E383891A2284801A09B2A18200B23C
:1028A0009A1AE08212B22283B4F92C30994200DAEB
:1028B000A185B4F92A30994200DD6185B4F9303040
:1028C000984200DA2086B4F92E30984200DDE08587
:1028D000B4F934309A4200DAA286B4F932309A421E
:1028E00000DD628600E013E0B5F91030994200DDAA
:1028F0002982B5F91030984200DD2882B5F91030F0
:102900009A4200DD2A8221806D4F608031B903E058
:102910002E70E673BDE8F08700B96AB321683046CF
:102920000AB202F38F03091402EB410144F6E712E5
:10293000514363F30F0021F34F3161F31F405F49AF
:1029400060602231FFF7ECFE2081618CB7F87220C5
:10295000914202D9B7F9761001E0B7F97410638992
:10296000C1F500425A4300FB0121C90B618129894D
:102970000844A081E88001E0E6736684514AD0896A
:1029800040B1638C516A4B43C1F5004101FB0030FB
:10299000C00B00E0608CD081B7F88200D1894FF67F
:1029A000FF77884205D9FFF729FFAF822F83AE80DA
:1029B0006EE0608944F62061884204D2A17B11B99F
:1029C00084F80E80268249F64042904204D2218A41
:1029D000B94201D2491C2182A17BE1B3904248D97E
:1029E000A673E07B032805D2401CC0B2E073032825
:1029F00002D23AE084F80F90208A628AB0EB520F3C
:102A000003D24FF0FF30688001E0A5F80280608DAE
:102A1000A18D401A6881E08D218E401AA881608EB8
:102A2000A18E401AE88147F6FF70A085C1436185F9
:102A30002086E185A08661862A83E869698890FB03
:102A4000F2F0484300B2A88000280DD0B5F910106C
:102A50004FF47A7200E00CE001FB02F101DAC0F100
:102A6000000091FBF0F068822E8226826682AE82A0
:102A70000BE0608A698B884202D2401C608201E0D0
:102A80002F83E673A88AB84202D2A88A401CA88283
:102A9000E07B032809D385F80080298BE86990FB47
:102AA000F1F069884843A88034E72E70A88AE98A43
:102AB0008842F9D9AE802DE7E8030018900300188A
:102AC000A0000018680100182DE9F05FDFF840A2AF
:102AD000904C914F9AF80E00904E914D4FF4FA7B26
:102AE0004FF0000902284DD003284BD0A6F80290E1
:102AF000388A8C494008C8460880C88048800881C8
:102B000088804881142201F11400FDF7E5FA4FF0A6
:102B10004020016FC1F30B02A5F85620816EC1F36E
:102B20000B01A5F85810406EC0F30B00A5F85A0031
:102B30003078062802D3404686F80080C1B205EB03
:102B40004100491C20F85C2FB5F858208281B5F867
:102B50005A2002833170A089584507D3B5F85A200E
:102B6000B5F85810B5F85600FFF768FE388A4FF6EA
:102B7000AF71091A70680182018A4182C5F88480A8
:102B8000BDE8F09F70884FF6FF71B046884202D2D0
:102B9000401CA8F80200644E3089F18888420BD0AE
:102BA000022807D0032805D0B5F88A00A5F88800C8
:102BB000A5F88A90318101E000F050FB9AF80E00F0
:102BC0005246022802D0B088E18C21E0B2F902001E
:102BD000002800DA4042B4F91C10884216DBB07AB3
:102BE000022813D994F8360080B1B4F92400E084A7
:102BF000C003E066B4F90E1090FBF1F05080B7F915
:102C00003800E085C003E06303209073B088A18C96
:102C10000844B080B4F92E00B5F98810401AB7F90D
:102C20005210484300F30F002086B8F802005845C0
:102C30000AD2B2F90400002800DA4042B4F91C10AC
:102C4000884201DBA4F830903248B4F9305050F893
:102C50005C1FB0F9063005FB0311B0F90830DB0347
:102C6000994204DBB0F90A30DB03994200DD1946D2
:102C70000160B0F904305D4305F31E052944B0F945
:102C80000C50C913A94201DA294604E0B0F90E003C
:102C9000814200DD0146FD8E88B2854223D992F83B
:102CA0000EC0BCF1020F08D0B2F90210002900DA00
:102CB0004942B7F96880414515DC2846BCF1030F4D
:102CC00011D1BAF90210002900DA4942B7F9682097
:102CD000323A914207D9B4F93010594301F31E0139
:102CE000C1EBC031E16530800F4800F0D3FBF088C4
:102CF000318988423FF444AFB07A022801D8401CA1
:102D0000B07200F0EBFD3089BDE8F05F00F05CBB15
:102D1000C8020018DC020018A0000018B00100185A
:102D2000E803001868030018580300182DE9F05F45
:102D3000954C0025DFF854A2A07BDFF854B2954FE4
:102D4000954EDFF858824FF47A7902282BD0032869
:102D50007DD000F013FE924901230A78002A77D033
:102D60006372D8F80800002873D0B1F90410B8F9DC
:102D7000003003FB0101B8F90230C01303FB10104F
:102D8000B8F9041000F31E00C903884204DBB8F947
:102D90000610C903884200DD0846C8F80800C013C1
:102DA000E080A080DEE0B8F8140098B1401E80B248
:102DB000A8F81400B8F81210081AFDF771FB396A68
:102DC000FDF71EFC02D2B98CAAF80410B8F8140062
:102DD000E0B126E07149B4F90000B1F91C100028F7
:102DE00000DC49426D4AD8F81830090452F8200F27
:102DF000814203DD1844884203DC03E0C01A8842A4
:102E000000DA08461060001460800AE0B4F900009F
:102E10000028B7F9300000DC404260800004C8F8A8
:102E20002000B4F90200B8F90E10414321F3CF316C
:102E3000A8F82410002800DA4042BAF802104843EB
:102E4000BBF8001090FBF1F0B98B414302E004E0C5
:102E50006DE066E091FBF9F05CE0BBF902000F2346
:102E6000504A5149FEF756F8A8F84A00A8F846001B
:102E7000B4F90010B4F90220002901DD891A00E03C
:102E8000511A0BB2B7F93C10BC46994201DA0B4615
:102E900008E0A1EB81029A4204DD01EB4102C2EBA2
:102EA00001410BB23D4951F83C2FB1F9067003FBCB
:102EB0000722B1F90870FF03BA4201DA3A4603E08B
:102EC000C003824200DD02460A60B1F904005843A3
:102ED00000F31E001044B1F90C20C013904201DA37
:102EE000104604E0B1F90E10884200DD0846A8F84B
:102EF0002E00B4F90200002800DA4042BAF802209D
:102F00005043BBF8002090FBF2F0BCF81C20424379
:102F100092FBF9F0A081BAF8000060813580BDE82D
:102F2000F09FB1F90400C103C8F8081038E7888A97
:102F3000C98A88420FD81D48808890B11C48818971
:102F400019B1818969B1807A58B13088484502D277
:102F5000401C308006E0A580E580C8F80850637208
:102F600000E035802272B8F80C404FF6FF708442C2
:102F7000D5D2B868FDF7C8FA81B2B1FBF9F02044A8
:102F8000A8F80C00CBE70000C8020018580300188E
:102F9000E8030018A000001864010018DC02001803
:102FA000C803001844010018240100187A0600180C
:102FB000FC01001870B5254A506C0068C0F30B0086
:102FC00090805069006810812148224C4FF6FF76AE
:102FD000408A25881E491F4B498A083B854201D9F2
:102FE000198009E04FF6FE75A84203D81980401CED
:102FF000208001E01D802680164B243B1814188089
:1030000090690188134C143C21804188241D218043
:103010008088211D088040201880508811898842AE
:1030200001D9108900E05088116908441061908826
:103030001189884201D9108900E0908811690844FB
:103040001061D088401CD08070BD0000680100185D
:10305000A000001828C0004070B52A4A506C0068D3
:10306000C0F30B0050805069006810812648274C3F
:103070004FF6FF76808A25882349244B898A083BAE
:10308000854201D9198009E04FF6FE75A84203D8A0
:103090001980401C208001E01D8026801B4B243BB2
:1030A000181418809069C188184C143C218001893B
:1030B000241D21804189241D2180402119804FF049
:1030C00040211378096CC1F30B01ABB19181002150
:1030D0001170008A0D492839B1F8781001440C4864
:1030E000027822F0040202700A0A02750174017863
:1030F00041F00401017070BD518101211170408ABD
:10310000E8E7000068010018A000001828C000408F
:10311000005000482DE9F0474D4FC2F30123C2F3A0
:10312000011507F10C0657F8239057F8258002F097
:103130000302DFF820A156F8233056F8255057F83F
:10314000227056F82260BAF810200024C0EB520218
:10315000521A00D50022A9F80020BAF810C000EBDE
:103160005C02521A00D50022944501DA0CF10102EA
:10317000A8F80020BAF810C000EB5C020A4494459D
:1031800001DA0CF101023A80B9F800201A80B8F88F
:1031900000202A803A8832802F4A126A9081D18199
:1031A000BAF81880BAF816C0C4441FFA8CFCBCEBFD
:1031B000410F10D9ACEB41018CB23988091B00D505
:1031C0000021398031882144BAF810408C4200DA5D
:1031D000611C31800224BCEB400F13D9ACEB4000E2
:1031E00081B2B9F80000BAF810700844874200DADA
:1031F000781CA9F800001888401A00D50020188013
:1032000044F00104E1074FF6FF7004D01B88BAF8C0
:1032100016703B4403E019882B8819444B08BAF810
:103220001010C3EB4101411A1182A10704D52B886C
:10323000BAF81640234403E02988338819444B0820
:10324000BAF81010C3EB4101401A5082BDE8F08774
:10325000D45C0011A00000186801001870B5424B42
:103260004249434CB3F880000A882488111A001B95
:10327000A21A09B200B212B2002901DB0C4600E02A
:103280004C423C4D6D68AE897443002801DB064614
:1032900000E04642ED8906FB0544C3F88440364C05
:1032A0002489052C41D2DFE804F00306090E13003F
:1032B000A3F88C1009E0A3F88C2001E0A3F88C009F
:1032C000A3F88E1008E0A3F88C00A3F88E2003E08A
:1032D000A3F88C20A3F88E00B3F98C20B3F98E10DC
:1032E0005018404200B2A3F89000002A00DA52427F
:1032F00012B2A3F89220002900DA494209B2A3F8D9
:103300009410002800DA40421C4C00B2A3F896004A
:10331000A48A6CB18A4200DB1146A3F88A10884265
:1033200000DA0846A3F88A001AE0A3F88C10D1E767
:10333000B3F98A40A24201DDA3F88A20B3F98A20BA
:10334000914201DDA3F88A10B3F98A10884201DDA9
:10335000A3F88A00B3F98A00B3F98810884201DD26
:10336000A3F8880070BD0000E8030018720100187F
:1033700074010018B001001858030018DC0200188E
:103380000E4991F8370000280AD00D4840F27653D4
:10339000B0F9020000F2BB229A4202D800208886CF
:1033A000704700EB80004000032290FBF2F000B277
:1033B000044A88869042F3DA8A867047DC02001855
:1033C000C802001890E8FFFF70B5EFF3108111F00C
:1033D000010F72B62A4C23682A4E32884FF000053E
:1033E0002560358000D162B693FBF2F226490B8846
:1033F0000988D21A42F210735A4392FBF1F10CB2CF
:10340000C00701D1604204B2FFF7BAFF1F4DA88E7A
:10341000201A1F4C02B26A86A07B032802D0A88C17
:10342000E88470BD194850F86C1FB0F9063002FBF3
:103430000311B0F90830DB03994204DBB0F90A301C
:10344000DB03994200DD19460160B0F904305343B3
:1034500003F31E021144B0F90C20C913914201DAA2
:10346000114604E0B0F90E00814200DD014608B2C9
:10347000E884B5F90E10C00390FBF1F0608070BDD8
:10348000780100186E01001870010018DC020018A5
:10349000C802001870B50188314C0246D9B1908835
:1034A000304E00EB40004000030CC0F30725C5F18F
:1034B000FF00D38036F810004843000C908136F8A6
:1034C00015506943090CD181052B45D2DFE803F083
:1034D0001315191C22002448008A4108206A018023
:1034E0000188C18001884180018801810188818033
:1034F0000188418112E012220EE00B464FF48172E6
:1035000005E04FF4907207E00B464FF40472014659
:10351000184601E040F20122FFF7FCFDEFF31080B6
:1035200010F0010F72B6216A0B88E06903804B88A6
:1035300043808B888380CB88C3800B8903814B8930
:1035400043818B898381CB89C3810B8A0382498A1A
:10355000418200D162B670BD0B462122D7E7000040
:1035600068010018F26F0011A0000018044910B59E
:103570000020887300F006F8BDE8104000F0FEB9A6
:10358000C80200182DE9F0477B487C497C4D008833
:103590000882288AFCF792FF7A4A7B4BFCF7FAFEF6
:1035A000FCF7E5FF794980B282464880D5F8208053
:1035B000A96A4046FCF7B4FDD5F80C904946FCF7E3
:1035C00007FE734E4FF07E54B04201DD304602E0FC
:1035D000A04200DA2046FCF797FF6E4F49467882FA
:1035E0004046FCF7F5FDB04201DD304602E0A04266
:1035F00000DA2046FCF788FF3882688EB883B84628
:103600004846FCF7CDFF06460F46E86AFCF7C8FFC0
:103610001022FCF72EFF32463B46FCF7BBFEFCF7C0
:10362000D2FF4FF09E41884201DD084602E0A042F1
:1036300000DA2046FCF74FFFC8F81800B5F81A90DA
:1036400008F122044846FCF739FFD5F80480064605
:103650000F4640463035FCF7A3FF02460B460020DC
:103660004D49FCF797FE0F22FCF703FF0F22FCF7F2
:1036700000FF0022494BFCF78DFE32463B46FCF72B
:1036800017FEFCF755FF07B224F8147CE889E083A5
:10369000288A2084688AE084A98A21856084A1849C
:1036A000688BE085A88B2086E88BE086298C2187B3
:1036B0006086A186A88CE087E88C24F8400F5046ED
:1036C000FCF7F7FE8246A96AFCF782FDFCF703FFD0
:1036D000E08006465046E96AFCF77AFDFCF7FBFEFF
:1036E00020816680A080012204F82C2C288EE081A5
:1036F000688E24F8100F6889784320F3CF30A080BB
:10370000414224F8021F24F8060F24F8021C04F892
:10371000432CB5F8500024F87A0D60804DF6F00087
:10372000A08042F21070E0801D4CE88F208140465E
:10373000A96CFCF77FFD0546FCF7E6FE6083284692
:10374000FCF72EFF0022174BFCF7B2FDFCF70FFF32
:10375000E0824846FCF7ADFE01464046FCF76AFDB4
:10376000FCF71EFF0022104BFCF7A2FDFCF7E0FE69
:10377000E061BDE8F0870000D05C0011C8020018CD
:10378000A000001830B844000018BE3F58030018CD
:1037900000FEFF46DC0200180000F03F00003E4043
:1037A000C80300180000F83F00004E402DE9F04F1C
:1037B000434EB6F904004742002801DB844600E08E
:1037C000BC463F4B3F49DFF800E1B3F90020B3F9B5
:1037D0000430B1F91C8002FB03F90A46BEF81E5002
:1037E000548A3A4ABEF934A00023B2F806B0384AE7
:1037F000C4451FDA374F3F88B7F57A7F0ED2334F73
:10380000B7F818C0B7F81A80C44507D2B7F814C083
:10381000FF8ABC4502D2B9F1000F03DA73809580AC
:103820008C8203E07080A2F804B08B821380A1F830
:103830002EA023E0B9F1000F07DA4FF6FF70738076
:1038400000EA440088829580F0E770808B82A2F8BD
:1038500004B0002800DA38461F4C55882488684395
:1038600090FBF4F0BEF81C4044434FF47A7094FB94
:10387000F0F4A54200DA2C461480CB85908800EB4A
:103880004000C0F3CF30D080108193729381D381F8
:10389000B6F9020004040C62B1F90E40604320F353
:1038A000CF3088848B861088C203CA65F27B22F0F1
:1038B0000102F273708181F83830BDE8F08F0000AA
:1038C000C8020018DC020018A0000018C803001885
:1038D0005803001864010018E80300181B481C4A2C
:1038E0001C4BC0884FF0402190B101281ED0032806
:1038F0000ED004281AD0C86820F0FF000830C86035
:1039000032F8580F20F01C000C30108012481AE0DA
:10391000C86820F0FF00001DC86032F8580F20F082
:103920001C00083010800C48001D0CE0C86820F016
:10393000FF00401CC86032F8580F20F01C00001D2A
:10394000108005480C3018607047000058030018BC
:1039500000C00040AC0100186440004010B5064CA7
:103960002080A07B012805D1FFF720FF01F028FB74
:103970000220A07310BD0000C802001870B5154DDC
:1039800000242C80A87B012823D00120A87301F0FB
:103990002BFB6C806C72E87B20F00200E8730E4811
:1039A000846084810D48A0F88C40A0F88E40A0F877
:1039B0009040A0F89240A0F89440A0F8964040F8BB
:1039C000844F8480C48006480480BDE87040FEF7C0
:1039D00015BF70BDC8020018DC020018E80300180B
:1039E000760100187047000010B5FFF7BFFD00F02A
:1039F00027F900F00FFA00F0F5F803480349807B3F
:103A00000872487210BD0000C8020018FC010018BE
:103A100070B5144E404204B2307818B9204602F016
:103A20002BF8044624B1104D287A012804D013E065
:103A3000BDE87040FFF7A2BF00F050FA01213170DD
:103A400000280ED000203070A88928B1A87A00285C
:103A500007D0E87A002804D12046BDE87040FFF77F
:103A60007DBF70BD18000018FC010018F8B5564D58
:103A70000026564C0096A97B21722888544B404260
:103A800020806888404200B2608078B1B3F900704D
:103A90005A6807FB0020B3F90270D21307FB12002B
:103AA00000F31E005860C013A08001E0A6805E6095
:103AB000A8884042E080A889E0826889A0824548C1
:103AC000022950F8842FE2618088208401D00329E4
:103AD0000BD1607A012805D100F0B2F800F09AF914
:103AE00000F080F8207A032806D0A661207A022808
:103AF0000BD0032809D064E0A06910F10B0F01D8A6
:103B00000A3001E04FF0FF30A061684600F000FF8E
:103B100000F09EF800F08EF900F06CF89DF80000BF
:103B2000810701D4C10703D0A18941F0010102E05E
:103B3000A18921F00101A181E97B284ACE0726490C
:103B4000274B4FF0010508D1A689F60705D10E785D
:103B50001EB916780EB91E7826B3266960F30416CE
:103B600026614608206966F3C30020610978206950
:103B700061F3861020611178206961F3451020619E
:103B80001978206961F3C7102061FFF7F7FEA0895B
:103B9000C00703D1A08940F00400A081A07A80B1C1
:103BA000E5720EE0A07A60B1A089400709D5A0694E
:103BB00042F21071884204D9A08920F00400A0814B
:103BC000EEE7207A6072F8BDC8020018FC01001808
:103BD0001C000018E8030018860000188A0000186E
:103BE00094000018024800210170418070470000D5
:103BF000940000181048114A818AC08A01EBD00352
:103C000083420BD250884FF6F571884202D80A30B1
:103C1000508008E04FF6FF70508009E0884202D2E1
:103C2000002050807047508840F6B8318842F9D95A
:103C30000120107070470000FC010018940000186B
:103C40000248002101704180704700008600001882
:103C50000F481049028C4888B2F57A7F09D94FF68F
:103C6000F572904201D80A3006E04FF6FF704880A6
:103C700007E00A2808D30A38488080B2B0F5FA7FF6
:103C800001D901200870704700204880704700006B
:103C9000FC010018860000182DE9F0414FF00008E3
:103CA000264844464746C1784646454691B10021DC
:103CB000C17000F0B3FF224A10881E384A2800D98C
:103CC0004A2080B202EB44014B89834207D27F1C19
:103CD000FFB20EE00121C17001F00AF92AE0CB8A9F
:103CE000834201D2761CF6B2498C814201D26D1C0E
:103CF000EDB2641CE4B2062CE4D31049091D062F72
:103D0000087802D340F0040001E020F004000870BD
:103D1000062E02D340F0080001E020F008000870F1
:103D2000062D02D340F0100001E020F010000870D2
:103D30004FF001084046BDE8F081000098000018EF
:103D4000E8030018F0B51C4F01233888C01E00217D
:103D500082B20D460C4607EB410046899E4207D3CE
:103D6000B0F816C09C4503D3B0F822C09C4501D2E0
:103D70006D1CEDB2964205D8C68A964202D8408C98
:103D8000904201D9641CE4B2491CC9B20629E2D3AD
:103D90000A49062D087802D340F0020001E020F025
:103DA00002000870062C02D340F0010001E020F070
:103DB000010008700120F0BDE80300189C00001805
:103DC00070B5134E0025341F3570207840B9FFF7C9
:103DD000B9FF207060B1307810B10120607005E04B
:103DE000FFF75AFF6070217811B108B1012000E09F
:103DF0000020002809D025706570317831B1A17894
:103E00000A2903D2491CA170002070BDA57070BDA5
:103E10009C00001805480021421C0170117041806F
:103E20008180C1800249C988018170478A000018D9
:103E3000FC010018F0B5274AB2F90210B2F90040AF
:103E4000002901DB084600E04842127A224B00B20A
:103E5000032A01D01881F0BD1F4DA0F5C8766D1C56
:103E600041F205072A78BE4202D342F0010201E086
:103E700022F001026143C90F61F341022A7099885F
:103E80000024B1F5FA7F02D20A31998004E09C80C7
:103E90001989411AD9801881588842B14FF6F571B5
:103EA000884201D80A3005E04FF6FF7002E00A2888
:103EB00002D30A38588000E05C80D00701D1900717
:103EC000C9D5588841F288318842C4D90120187078
:103ED000F0BD0000FC0100188A00001870B5284CE5
:103EE000284E0020E18809B1717829B1A18981B1FA
:103EF000A17A71B101250DE0A08920F00100A08117
:103F00002148C07B4108A08961F34100A0810120C4
:103F100070BD0025A18909B1002DF9D0FFF750FF30
:103F2000012373700028F3D00021717017490978BC
:103F30008A0701D4CA0703D0A28942F0010202E035
:103F4000A28922F00102A281A289D2070DD14A07DB
:103F500003D40A0701D4C90603D5A18941F002019F
:103F600002E0A18921F00201A181002DD0D0A18918
:103F7000C90702D1A1898907CAD5E37270BD0000C3
:103F8000FC01001818000018C80200189C00001856
:103F90002DE9F84F9046DDE911B2DDE90DA4DDE928
:103FA0000AC592F90460814609B1002006E043EA9F
:103FB0000C00284301D0012000E0022010710027EE
:103FC000A8B1012819D00026277035463346484647
:103FD000D4798BF80040109994790C700F9954792A
:103FE0000C700C99002975D0AAF8007089E0277030
:103FF000002056799579D379EAE7012E05D017721A
:10400000178057729772578007E0107A28B1B9F17C
:10401000000F35D0B8F1000F32D043B150790146CE
:10402000401C491CFF2900D9FF20C6B200E0002631
:104030004DB1907943B90146401C491CFF2900D974
:10404000FF20C0B200E00020BCF1000F0CD02B43D9
:1040500001D0D37909E0D1790B46491C5B1CFF2BB9
:1040600000D9FF21CBB200E00023054616B1694616
:10407000304602E0694600B9184600F0F7FF05E057
:1040800056799579D3791088ADF80000517A0220DD
:104090004FF0010C89B1917A012911D02770508815
:1040A000BDF800104FF6FF78884214D3414512D076
:1040B00082F80AC084F800C014E082F809C004E065
:1040C00084F800C0B8F1000F0CD09072A2F802C0C2
:1040D000277007E013E0411C401CB0F5803F00D37F
:1040E00041465180117A48460C46491C641CFF2CFD
:1040F00000D9FF211172BDF80010118068E7AAF8FD
:10410000000056719571D371BDE8F88FFF210171E0
:10411000002101720180417281724180704708B1B3
:104120000020704709B110467047184670470000DC
:1041300010480021017280F8281080F8301080F8B3
:104140002C10022280F82020017180F8501080F895
:10415000E01080F8DC1080F8D81080F8EC1080F8BF
:10416000E81080F8E410032180F86C10082180F832
:10417000AC1070470040005011481C210171002113
:1041800080F840100E220277027680F8301080F816
:104190003410082200F8112B122200F8052C80F8A8
:1041A00033101022C274C273022280F8272080F8D4
:1041B0002B2000F8091CC170C176C1757047000042
:1041C000008002482DE9F047984691460E46044685
:1041D000EFF31080DDF820A000F0010572B6012099
:1041E00001F08EFB204643F6E5018847074601F0C3
:1041F00093FBCFB90022B05CA054521CD2B2802AEB
:10420000F9D3012001F07CFB4FEACA70410F08F09E
:10421000010041EA400009F00101084343F6DD01D5
:104220008847074601F078FB05B962B63846BDE815
:10423000F08700003FB5174C1749E088FEF74CF9AE
:1042400004F11C0105461448CA1E801D231DCDE93A
:104250000210CDE90032A37C228821892846FDF78F
:1042600034FB0D4B617E343B987D814203D8A0889E
:104270002288904201D0012200E00022E2751DB1A7
:10428000A0886080002002E02088608001202076E5
:1042900099753FBD5C050018C8050018044890F8E2
:1042A0004600002803D00248002180F846107047DD
:1042B00094050018064908B5002088753431684611
:1042C000FEF755F9024903483A31FDF763FB08BD93
:1042D0009405001878050018044908B50020887571
:1042E00034316846FEF74AF908BD0000940500180D
:1042F000034904480A89C2804989018100F044B910
:104300005E0600185C05001830B50F480F4D104CC4
:10431000027BEB7D6189407B9A4205D82B7E9842D7
:1043200002D8EB88994201D0012300E00023E37515
:1043300008B1002301E04FF47A73638001232376F0
:10434000E980EA75287630BD7A06001894050018D1
:104350005C05001802480021C180C17501767047D4
:104360009405001802480021C180C175017670478C
:10437000940500182DE9F84F704F798997F91900C5
:10438000142901D3012200E000227A7690420AD05B
:10439000012808D1B87E012801D1FFF77FFF4FF037
:1043A000FF30B876F876664C00263AB1B889654D8C
:1043B000208097F91A20287B38B108E07889401CC2
:1043C0007881A681A675BDE8F88F687B30B100239F
:1043D000BB769A4206D0012A02D003E00123F7E718
:1043E000FFF75CFF73B1012A01D0FFF775FFFFF7FC
:1043F00021FF97F91B10207EDFF84CA1A04638B1B1
:10440000002011E00AB1FFF7ADFFFFF77DFFF0E7F5
:1044100098F8170028B9BAF91200B7F900209042AD
:1044200001D0012000E00220F87618B301283BD02B
:10443000B7F90850FE89BC884FF000093F48404B4F
:104440002E3000900E334A463146284600F064FE76
:10445000BAF812003880B8F80210B9813D81FE81A7
:10446000BC8098F8181088F81610B8F80E10A8F844
:104470000C10A8E701B13E82287B18B100244FF44C
:10448000BE7603E0BC88687B10B1B426002502E04C
:10449000FE89B7F90850388A20B10021401C8946AE
:1044A0003882CBE70121F9E7B88840F2B63210B183
:1044B000012810D109E0B8F80210914201D9002476
:1044C0000EE0642907D3012406E0B8F802109142F7
:1044D000F7D9002402E00024A04201D0012000E02E
:1044E0000020814624B3B8F802504FF46170854231
:1044F00000D30546154ABAF912000223911D01F0B6
:10450000E9FAC0EBC01000EB8000062101F030FAA0
:1045100006B2642D00D86425B320643D6843502161
:1045200001F06EFA00F2EE20864203DA354602E030
:10453000002500E005B2002680E700009405001881
:104540005C0500187A0600185E060018B45D0011BC
:1045500010B50B4C4FF0FF306076A076E07650201F
:10456000A0810120A080FFF7F5FEFFF7A3FE002049
:10457000208204F12E01BDE81040024800F0EFBD9A
:10458000940500186A0500180B488089C82801D3D3
:10459000012100E000210848407911B108B1012251
:1045A00000E00022054B5A7301B110B100201873CE
:1045B00070470120FBE700005E0600187A0600182D
:1045C00070B5EFF3108000F0010472B600204C4982
:1045D000096888474B480178002321F002010170E7
:1045E000017821F00101017046488830982101705E
:1045F000444D4C35297841F0C0012970A821017043
:1046000098210170021DB0211170A821017098211C
:1046100001703C492031B0220A70A8220270982211
:1046200002700E1DB0223270A82202700A7842F089
:1046300002020A700A7822F008020A700A7822F050
:1046400004020A700A7812F0010FFBD09821017061
:1046500000212970A82101704FF050210A7842F002
:1046600002020A70274A3432002111709821017029
:10467000111F0A7842F002020A70A822027000BFDD
:10468000982202700A7822F002020A70A8220270B0
:104690001C4D38350B222A70982202700A7842F09D
:1046A00002020A70A822027000BF982202700A78E3
:1046B00022F002020A70A8220270982202703422AC
:1046C0000A70A8220270982202700E4A48321370B3
:1046D000A8220270982202700A7842F002020A7040
:1046E000A822027000BF982202700A7822F002020B
:1046F0000A70A8210170002C00D162B670BD0000C4
:10470000F4710011245000501148016821F0060195
:104710000160016801F4E021090C0129F9D164204C
:10472000FCF73AFE0B4800780A488430007801F024
:1047300009F9012001F0E4F872B6074998200870E1
:1047400005496C390220087020BF20BFFEE7000039
:1047500000E0014800400050AC5000504FF05020A5
:104760007F2100F8B41F012100F83C1C802100F8D3
:10477000381C002100F8641C05220271017281229C
:1047800002730174017780F8981080F8CC1070479C
:1047900000F086B8064844F21B01818001210182A5
:1047A00000210180818841F4004181807047000030
:1047B000004002480548012181800B21018200212F
:1047C0000180818841F40041818070470060024887
:1047D000054810B50068804720B904480068804744
:1047E000002800D0012010BD00720011F8710011E6
:1047F000F8B54FF055356E00274C00200090A561AC
:10480000A069A84201D0012000E000200090A6612C
:1048100010B9A069B04201D0012000E00020009052
:10482000656100B101200090666100B10120009037
:1048300078BB1A4F786825E01749143188421FD099
:10484000091D88421CD06946884219D00168A161BF
:104850000560009911B90168A94201D0012100E069
:10486000002100910660009911B90168B14201D0A0
:10487000012100E000210091A169016001F04CF8E4
:104880006069001D6061B968814202D90099002900
:10489000D2D00098C0B2F8BDB8010018EC5C00118D
:1048A0001CB5002000900346024601460190FCF72B
:1048B0003BFA1CBD0548018821F03F0101800188B9
:1048C00041F0800101800248FCF7FAB908C00040BD
:1048D00000FC1F1F10B500F081F9FFF779FF0349B5
:1048E0000A6860F392420A6010BD0000D40100180B
:1048F0000248017A41F010010172704700800248BD
:104900000248017A21F010010172704700800248CC
:10491000104A136810490B42017802D153685B04B6
:1049200002D541F0020101E021F00201017011689D
:1049300044F24003194202D15168490603D5017877
:1049400041F0010102E0017821F001010170012034
:104950007047000000400340000040402DE9F04156
:104960007F4D95F870007F4E4109306861F300007B
:1049700095F87010C90861F3410095F87010890826
:1049800061F3820095F8701061F3C30095F8701020
:10499000490861F30410297A490961F34510297A1D
:1049A000090961F38610297AC90861F3C7103060DC
:1049B000810603D4410601D4010607D5297A21F0E6
:1049C00008012972297A41F001012972664A916928
:1049D000490861F308209169C90861F34920916988
:1049E000604B890861F38A20604C614F306041055B
:1049F0004FF0000CA3F11C030BD55989022905D9EE
:104A00003988492907D9C4F834C004E0491C5981C0
:104A100001E0A3F80AC05169C90602D451698906A8
:104A200002D540F4006001E020F400603060A06D29
:104A30004C4AC0F300701C3A0521FCF7A2FA316819
:104A400060F30C313160A06DC00007D5606D40F09F
:104A500080506065606D40F480106065A06D414AD3
:104A6000C0F3C0601A3A0521FCF78BFA316860F395
:104A70004D313160A06D000107D5606D40F00060E0
:104A80006065606D40F400206065A06D354AC0F33C
:104A90008060183A0521FCF774FA316860F38E31B2
:104AA0003160A06D400107D5606D40F080606065A9
:104AB000606D40F480206065A06D2A4AC0F34060BC
:104AC000163A0021FCF75DFA316860F3CF313160AE
:104AD000A06D800107D5606D40F000706065606D6D
:104AE00040F400306065A06D1E4AC0F30060143AC7
:104AF0000021FCF746FA316860F310413160A06D87
:104B0000C00107D5606D40F080706065606D40F455
:104B100080306065C8051AD4880518D4480516D4B5
:104B2000C80414D4880412D4480410D408040ED441
:104B3000C8030CD497F89800800706D5287A000699
:104B400005D4B7F93C00962801DCC80702D041F42F
:104B5000003001E021F400303060BDE8F081000059
:104B600000400050D401001800800148006000504F
:104B7000E803001870B5FFF73BFE0F4D00242968CD
:104B800060F3D3410D4829600169C068FCF7A4F9BE
:104B9000A5F11C01C8600A490968884200D00124B7
:104BA000286864F314502860FFF712FE296860F348
:104BB0009241296070BD0000D4010018EC5C001126
:104BC000E87F0011EFF3108000F0010072B6014998
:104BD00008617047B8010018FFF796BD10B5074C83
:104BE000208820F040002080064905480968406977
:104BF0008847208840F04000208010BD0800014018
:104C0000EC5C0011FC71001102480069002800D121
:104C100062B67047B801001800F07EBE1CB50120D6
:104C200000900346024601460190FCF77DF81CBD4A
:104C300038B50C460021ADF80010020900F00F0154
:104C4000012A0BD0022A0ED030384FF0402105281F
:104C500008D2DFE800F0131B1D1F21006846FBF798
:104C6000CBFD78B938BD092905D80D4A52F8210085
:104C7000C0F3090000E00020800801E0886D0CE02E
:104C8000ADF80000BDF80000208038BD086F04E0DA
:104C9000886E02E0486E00E0C86EC0F30B00EFE7DC
:104CA00050C001480148C06970470000EC5C001129
:104CB0000148406970470000EC5C00110448B0F8FE
:104CC00046001D2801D301207047002070470000D6
:104CD000E803001802480068C0F380207047000015
:104CE00000E001480348007801020248001F0078F4
:104CF000084370470C40004810B5FFF763FFFFF70B
:104D000039FFFFF781FF00F0B6FAFFF75BFF00F015
:104D10002DF800F0F9F800200F49024601230A722D
:104D20000B72401CC0B20828F9D30C480C494078DB
:104D30000A68400022F0060200F0060002430A6002
:104D40000848018841F0400101800749022008809D
:104D5000BDE81040FFF758BF00400050EC5C001168
:104D60000C8001480800014004C00040034890F84E
:104D7000200008B100F0ACB8FFF7BABDEC5C001140
:104D800002480078C0F380107047000000400048DF
:104D900002480078C0F380007047000000400048DF
:104DA0001CB5032000900346024601460190FBF724
:104DB000BBFF1CBD074830F85C1F41F0800101803B
:104DC000018821F03F01C91C01808B2120F8541C6F
:104DD0007047000000C00040074830F85C1F41F0F9
:104DE00080010180018821F03F0130310180B22132
:104DF00020F8541C7047000000C00040074830F8FD
:104E00005C1F41F080010180018821F03F010C31DD
:104E10000180AC2120F8541C7047000000C0004005
:104E200010B5002303E0C45CCC545B1C9BB29342DE
:104E3000F9D310BD014800797047000000200248F6
:104E40000149002048637047006000500548017820
:104E500021F0040200210270024814300170001F8A
:104E6000017070470040004810B542F2107398423C
:104E700000D91846044640F2572044431846B4FB74
:104E8000F0F39BB2814200D9014640F257246143BE
:104E9000B1FBF0F189B2824200D9024640F25724B8
:104EA0006243B2FBF0F0054A1380121D1180111D00
:104EB0000880024910394020088010BD14C000400D
:104EC0000248017941F0200101717047004000481B
:104ED0000248017A21F010010172704700800248F7
:104EE0000248017A41F010010172704700800248C7
:104EF0001CB5FFF7DFFC01200090034602460521A8
:104F00000190FBF711FF1CBD154880220178154860
:104F1000012910D002291ED080F8502010F8341F2B
:104F200041F001010170017821F002010170017866
:104F300041F004010DE080F8502010F8341F21F0FA
:104F400001010170017821F002010170017821F066
:104F5000040101707047002180F85010DEE7000066
:104F6000EC5C001100400050124810B5C16841F0DF
:104F70000601C1601048818D21F0FF011E3181853D
:104F80000E48816821F0407101F1007181600A4C86
:104F9000241D0120208042F2107002461146FFF7C6
:104FA00063FF02202080FFF785FCBDE81040FFF77B
:104FB000F7BE00000080014800C0004000400340F0
:104FC00010B5084C012141F288302180024611467B
:104FD000FFF74AFF02202080FFF76CFCBDE810407D
:104FE000FFF7DEBE04C0004010B5FFF717FE4FF01C
:104FF0004020C16821F0FF010D31C160034830F845
:10500000581F21F01C011431018010BD00C0004068
:105010002DE9F843144688460746002515E00D4E55
:10502000308820F040010020318000907819012361
:1050300000224146FFF7C6F8308840F0400030803B
:10504000802C04D3803CA4B28035002CE7D1BDE88D
:10505000F883000008000140034A02211170111F6B
:10506000087001207047000008200248012806D07F
:10507000022807D0032809D041F2707004E04FF4F1
:10508000FA7001E04FF4E1600880704740F6E440B8
:10509000FAE7F0B54FF0000C059C0125267986B1A2
:1050A00094F805E02F047E1EBEF1010F12D0218876
:1050B000142922D2481C491CB94200D33046208012
:1050C000F0BD2571657181F800C082F800C083F8D9
:1050D00000C0F0BD70B16088122804D325800D7027
:1050E00002206071F0BD451C401CB84200D335461B
:1050F0006580F0BDA4F802C0F0BD08B11570F0BD28
:105100001D70F0BD10B500241C715C711C805C80AA
:1051100004700C70147010BDF0B50126059C0225BA
:10512000277927B16779012F03D0A2B114E0267146
:1051300000E012B1657165800AE062888A4208D297
:10514000501C521CB2F5803F01D34FF6FF706080B7
:105150002088188000E0667118882080F0BD002249
:105160000A714A714A8002807047000010B5FBF74F
:1051700083FD02480168491C016010BDF801001858
:105180004FF0E02045F6C051416100218161016985
:1051900041F004010161016941F00201016101690D
:1051A00041F0010101617047084910B54FF0885086
:1051B0000860FFF705FAFFF7E3FF00F095FB0449ED
:1051C000002008760349087610BD000008ED00E0D5
:1051D00000400048005000480D480078A8B14FF04A
:1051E0004020006C0B49C0F38900C1F884000A48D4
:1051F000017821F004010170FD210175582101742D
:10520000017841F0040101707047FDF725BF0000EF
:1052100054000018E80300180050004803480078C4
:10522000002801D1FDF7C6BE7047000054000018E9
:105230000748F821017380210172F921017570215D
:105240000174102101710021017001767047000086
:10525000005000480648FF21017301720175017476
:105260005821017109210170032101767047000066
:1052700000400048704710B5FFF770FAFEF758FF7E
:10528000FBF7CCFAFBF706FBFBF720FDFBF7E0FD95
:10529000FBF718FEFDF77AF9FDF738FAFDF738FA53
:1052A000FEF76AFFFFF776FAFFF784FAFFF7D2FFFF
:1052B000FFF7BEFFFFF7DEFF00F090F900F0B0F956
:1052C000FBF76EFEBDE81040FDF7D2B92DE9F05FA7
:1052D000AE4FAD4D0126FA8895F800C03988B888E0
:1052E00000244FF47A7B40F6D86841F268094FF009
:1052F000030ABCF1000F1BD1AB78CBB15B1EAB70C6
:105300005A4512D2414510D949450ED2B0F5A07F79
:105310000BD2B0F58C7F08D9EA781AB1521EEA7028
:10532000BDE8F09F2E706C8108E00A20E870F7E776
:10533000AC70BCF1000FF3D05A4530D241452ED9A4
:1053400049452CD2A0F21911272905D2297909B192
:10535000EC716C712C7122E0A0F27D11272906D22C
:105360002979012901D0EC716C712E7117E0A0F23E
:10537000E111B1F5A97F07D82979022901D0EC7193
:105380006C71022129710AE0A0F27131272906D23D
:105390002979032901D0EC716C7185F804A07C4A4D
:1053A0009189490701D50D2164E09189890701D5CB
:1053B0000B215FE09189C90701D009215AE0754BA3
:1053C000B3F93A108D290AD2B3F93C108C2906DCC6
:1053D000002904DB704909685FEAC17C01D007211C
:1053E00048E012883ABB1A88783A1F2A41D2B3F8AB
:1053F00042207D2A3DD8692A3BD3B3F84420912A24
:1054000037D87D2A35D3B3F84820B52A31D8A02A19
:105410002FD3B3F84E20B72A2BD8912A29D3B3F82B
:105420004C20F02A25D8D72A23D3B3F84A20FD2AC6
:105430001FD8D72A1DD38A071BD44A0719D40A07B5
:1054400017D4CA0615D48A0613D44A0611D40A06FC
:105450000FD4CA050DD48A050BD44A0509D4CA0451
:1054600007D48A0405D44A0403D40A0401D4C90326
:1054700003D50521A981EE8101E0AC81EC81297978
:1054800041B1012912D04FF44872022921D00329D9
:105490000AD146E0687938B9E87901280CD8401C6F
:1054A000E8716E71AE8112E06C8148E06879002885
:1054B000FAD1E879012801D96C71F5E7401CE8714F
:1054C0006E71E889A9890843EED1A5F80CA0EE8198
:1054D000EAE7697959B9E97901290ED8EB89B5F874
:1054E0000CC053EA0C0308D0491CE9716E71B0F589
:1054F000FA7F04D240F2A46011E06C71F7E79042A9
:1055000002D940F634000AE04FF4C871A0F5FA70F1
:1055100048434FF4967190FBF1F000F2A46068816B
:105520000DE0687948B9E879012816D8E989AB898E
:10553000194312D0401CE8716E716A816E706879EF
:10554000F8B1A87958B1287A70B1FFF7D9F9BE72CD
:10555000688AA0B1401E688213E06C71EDE72C727E
:10556000A8892882E8896882BC72FFF7B9FC288A7A
:1055700008B1401E01E02E72A889288201E02C7239
:105580006C716879A871CBE672000018DE01001812
:10559000FC010018E8030018D4010018FCF762B8F9
:1055A000FCF7B4B870B50B4C207E0B4D800706D5C8
:1055B0002078000603D5FFF7F3FF80202870207EB7
:1055C000C00706D02078400603D5FFF7E7FF40204C
:1055D000287070BD004000481C4000487047000023
:1055E00070B54FF0502595F834000B4E0B4C40062B
:1055F00006D53078C00703D000F028F801202070CD
:1056000095F83400000606D53078800703D500F001
:105610001FF80220207070BD0020024808200248B8
:105620000849502008704FF05020002100F8981FC2
:105630001321017288210171012101700249182092
:105640000860704700200248F0010018FCF7C6BA55
:10565000FCF744BB2DE9F041FCF7A0FA10287DD1FE
:10566000002401262046FCF7A7FAF82876D101206D
:10567000FCF7A2FA074601460020FCF787FB012051
:105680007449754D0A2F23D2DFE807F0050C234437
:10569000529BB0B6D3D9714C02202188FCF764FB31
:1056A000A1889FE00620FCF787FA05460146012005
:1056B000FCF76CFB2819C0B2FBF77CFCC0F3072198
:1056C000A01CC0B2FCF762FB641CE4B2062CF1D350
:1056D000A8E0634C2068010E0120FCF757FB20680E
:1056E000C0F307410220FCF751FB2088C0F30721DB
:1056F0000320FCF74BFB21780420FCF747FBA08834
:10570000010A0520FCF742FB21790620FCF73EFB4D
:10571000A17950E0B1F904100120FCF713FBB5F9B1
:1057200000100220FCF70EFBB5F90210032060E028
:10573000A88900F00102A88962F35F00AA89C2F378
:10574000400240EA8200AA890C468979C2F38002AD
:10575000090140EAC2001031084300E078E0E17935
:10576000890140310843C1B20120FCF70FFBE07A08
:10577000217B40EA4101287A022820D003281ED04C
:105780000020627BC00040EA82000143C9B20220CF
:10579000FCF7FCFA00210320FCF7F8FA00210420B2
:1057A000FCF7F4FA217A0520FCF7F0FA617A06207A
:1057B000FCF7ECFAA17A0720FCF7E8FA34E00120C4
:1057C000DFE7284C0120B4F93A10FCF7BBFAB4F932
:1057D0003C100220FCF7B6FA608800EB400101EBB8
:1057E000C00081B20320FCF7BFFA1DE0B5F9061036
:1057F0000120FCF7A7FA17E00620FCF7DDF90546C3
:1058000001460120FCF7C2FA2819C0B2FBF7D2FB0F
:1058100000F07F01A01CC0B2FCF7B8FA641CE4B22F
:10582000062CF1D3002E13D0BDE8F0412020FCF768
:105830003DBA0D4908700120FCF7C8F9F4E70B4C9C
:10584000208A010A0120FCF7A1FA217C0220B3E79B
:10585000BDE8F0817A060018FC010018DE0100188E
:10586000C85C0011E803001824000018C8020018E2
:10587000F0B54FF4803700247E1E82420BDA5C8044
:105880009C801888B04205D2441C401CB84200D30A
:1058900034461C80F0BD8A421C800ADD9C805888FA
:1058A000B042F7D2451C401CB84200D335465D805B
:1058B000F0BD5C809988B142FAD2481C491CB942BB
:1058C00000D330469880F0BD70477FB55223CDE9B4
:1058D00002324B25AA24AF230A22CDE90045FBF76B
:1058E00007F87FBDFBF78AB803493F2048630348A8
:1058F000002141600170704700600050F401001801
:1059000003498007000E4863024901200870704770
:1059100000600050F4010018084900204A68B2F500
:105920002F7F02D20A78012A06D1054A3F20506310
:10593000002048600870012070470000F401001842
:10594000006000504FF0E020016921F00101016189
:10595000704702E008C8121F08C1002AFAD1704738
:105960007047002001E001C1121F002AFBD17047DF
:10597000002801DBC8407047C043C840C04370479F
:10598000084A1088518808449188084480B2002150
:1059900002EB4103491CDB8889B2184480B21F29FD
:1059A000F6D370472002001870B5134C134D2088B1
:1059B0004738952809D2B4F93A0010F1280F04DDD0
:1059C000962802DAFBF73EFD10B1A888A4F8800003
:1059D000B4F88010A1F2DC50B0F5967F94F89800EE
:1059E00002D940F0010001E020F0010084F89800A5
:1059F000C00700D1A98070BDE8030018200200187C
:105A0000C20FB2EBD17F07D090FBF1F201FB120283
:105A100012B14FF0FF3200E0002290FBF1F0104491
:105A200070470000094945F2AA50088001204880CB
:105A300040F27C6088800020024601EB4003401C5D
:105A400080B2DA801F28F8D37047000020020018C7
:105A500010B5FFF795FF07490A88A2F5AA43AA3BAC
:105A600005D1B1F84410814201D1012010BD0020C0
:105A700010BD00002002001830B500F19501B1F50D
:105A8000957F00D80020124B19461C7A4A7AB1F94A
:105A9000041004B95AB101FB00F4002C06DA01F23B
:105AA0002B1440F25625AC4200D9002002B9002048
:105AB0009A7B012A0BD1002801DB024600E042421A
:105AC0006432002900DA49428A4200DA002030BDFF
:105AD000C802001870B5B1F90040844202DB00240E
