:020000041100E9
:10000000400A001899000011A3000011BB2D001137
:10001000C9320011310D0011B5540011000000006B
:10002000000000000000000000000000AD00001112
:10003000C500001100000000C70000116D4A00114A
:10004000552D0011CB000011CB000011CB00001189
:10005000CB000011350D0011CB000011CB000011B9
:10006000CB000011CB00001121530011AD53001142
:10007000CB000011CB000011CB000011CB00001110
:10008000DFF810D000F01EFB00480047816500112A
:10009000AFF30080400A00180C4880470C48004726
:1000A000FEE7FEE7FEE7FEE7FEE7FEE70420714617
:1000B000084203D0EFF3098006490847EFF30880B0
:1000C00004490847FEE7FEE7FEE7FEE7A94A0011FC
:1000D00081000011A1000011002800DA40427047A1
:1000E00040EA01039B0703D009E008C9121F08C0BA
:1000F000042AFAD203E011F8013B00F8013B521E3A
:10010000F9D27047D2B201E000F8012B491EFBD2B0
:1001100070470022F6E710B513460A460446194612
:10012000FFF7F0FF204610BD80EA010210B502F093
:100130000043400022D04A001FD0010E01EB1261A3
:10014000C0F35600C2F3560240F4000042F400022D
:10015000A0FB022000047F39140400D0401C50EAA8
:10016000124001D44000491EC2B20C0604EBD0106C
:10017000401C4008802A02D003E0002010BD20F07F
:100180000100002900DA0020184310BD30B480EAD5
:10019000010202F0004530F0004221F0004013D08F
:1001A00090B1C30DD40DC2F31601C0F31600E41ACA
:1001B00041F4000140F400027D34914201D3641CFB
:1001C00000E04900002C02DA30BC002070474FF4F8
:1001D00000000023914201D3891A034340084FEAEB
:1001E0004101F7D151B1914202D14FF0004105E0F8
:1001F00002D24FF0010101E06FF0010103EBC450A6
:10020000284430BC00F0C9B9420005D0C0F3C75241
:100210005242914201DC0020704700EBC150704710
:100220002DE9FE4F81EA030404F0004421F000416F
:1002300000944FF0000B23F0004350EA01045ED01D
:1002400052EA03045BD0C3F30A54C1F30A552C44A9
:10025000A4F2F3340194A0FB0254C1F3130141F45E
:100260008011C3F3130343F4801301FB024400FB2A
:10027000034E840A970A44EA815447EA8357A4FB51
:10028000076802958D0A05FB07854FEA932C04FB4E
:100290000C542705029D4FEA065847EA1637B5EB7E
:1002A00008056EEB070C870E920E47EA811742EAAB
:1002B0008312A7FB0201B6EB0B0164EB00042B0DCC
:1002C00043EA0C335E1844EB1C50DA465146E7FB18
:1002D0000201C5F313044FEA0B3343EA14534FEA08
:1002E0000432019C43EA0603A4F10C040294009C2E
:1002F000CDE900B400F097F903B0BDE8F08F00201D
:100300000146F9E72DE9F04D81EA030404F0004BC2
:1003100021F0004514464FF0000A23F0004150EA56
:10032000050220D054EA01021DD0C5F30A57024647
:10033000C5F31303C1F31300C1F30A5640F480154B
:1003400043F48013A7EB0608101BD64608F2FD38CD
:1003500073EB050002D308F1010801E092185B413C
:10036000B8F1000F03DA00200146BDE8F08D00204F
:100370004FF48011064684460EE0171B73EB050709
:1003800005D3121B63EB050306434CEA010C490835
:100390004FEA300092185B4150EA0107EDD152EA72
:1003A000030012D082EA040083EA0501084305D065
:1003B000101BAB4106D20122002306E000224FF0C1
:1003C000004302E06FF0010253101AEB06004CEB01
:1003D000085110EB0A0041EB0B01BDE8F04D00F0B5
:1003E00013B970B521F0004303430CD0C1F30A5593
:1003F0000024D5EB040564EB0403D617AD1AB34112
:1004000002DB0020014670BD201841EB025170BD97
:1004100096230022114600F0C9B80EB540F23341D0
:1004200002910021CDE900110A460B4600F0FBF8CD
:1004300003B000BD00F0004220F00040C10DC0F349
:10044000160040F400007F2901DA00207047962949
:1004500003DCC1F19601C84001E096398840002ACA
:10046000F4D04042704720F00040C10DC0F31600A8
:1004700040F400007F2901DA00207047962903DC50
:10048000C1F19601C840704796398840704770B5F1
:10049000C1F30A5201F000450024C1F3130140F2F8
:1004A000FF3341F480119A4201DA002070BD40F21E
:1004B00033439A42A2F2334203DC524200F05DF829
:1004C00000E090402C43F1D0404270BDC1F30A528D
:1004D00010B5C1F3130140F2FF3341F480119A4289
:1004E00001DA002010BD40F233439A42A2F23342B7
:1004F00003DC524200F041F810BD904010BD00F006
:10050000004230F000400AD0C10D01F56071C0F327
:10051000160042EA0151C20840071143704700200B
:100520000146704701F0004330B421F0004150EA29
:10053000010206D00A0DA2F56072C1F31301002A70
:1005400002DC30BC00207047440F44EAC104C10003
:10055000E01830BC00EBC25000F01FB8202A04DBCA
:10056000203A00FA02F1002070479140C2F12003C6
:1005700020FA03F3194390407047202A04DB203A05
:1005800021FA02F00021704721FA02F3D040C2F1B3
:10059000200291400843194670470029A8BF7047C0
:1005A000401C490008BF20F00100704710B4B0FAA9
:1005B00080FC00FA0CF050EA010404BF10BC704744
:1005C00049B1CCF1200421FA04F411FA0CF118BF5E
:1005D000012121430843A3EB0C01CB1D4FEA00612D
:1005E0004FEA102042BF002010BC704700EBC35000
:1005F00010440029A4BF10BC7047401C490008BF2C
:1006000020F0010010BC704710B5141E73F10004F7
:1006100008DA401C41F1000192185B411A4301D1F4
:1006200020F0010010BD2DE9F04D92469B4611B11E
:10063000B1FA81F202E0B0FA80F220329046FFF780
:100640008DFF04460F4640EA0A0041EA0B0153467B
:100650005A46084313D0114653EA010019D0C8F195
:1006600040025046FFF789FF05460E465046594660
:100670004246FFF773FF084305D0012004E02046FF
:100680003946BDE8F08D0020054346EAE0762C436C
:1006900037430A986305E40AA0EB08000022FD0A2C
:1006A00044EA47540A3002D500200146E9E7010533
:1006B00010196941DDE9084500196941BDE8F04DAF
:1006C000A2E70000064C074D06E0E06840F0010399
:1006D00094E8070098471034AC42F6D3FFF7D4FCF7
:1006E0007C8700119C87001170B58C1810F8015B95
:1006F00015F0070301D110F8013B2A1106D110F8BB
:10070000012B03E010F8016B01F8016B5B1EF9D1BE
:100710002B0705D40023521E0DD401F8013BFAE744
:1007200010F8013BCB1A921C03E013F8015B01F8AF
:10073000015B521EF9D5A142D8D3002070BD000044
:10074000074A0346A2EB810100200A6802F4003246
:10075000520C04D00868C0F389001880012070474B
:10076000704000404FF0402040F201314160502184
:1007700081610021C16182150265164A8260164AB4
:10078000C26041624FF4206282624FF00A12C2627C
:100790000167C166816641660166C1658165016464
:1007A0004115C1670D4921224A6001228A614FF03B
:1007B000502212F8603F23F001031370021D1368EA
:1007C00043F440731360026842F0010202600015B6
:1007D0000860704701000500020001000080014828
:1007E00011480021416140F2017282610222C2611E
:1007F0000E4B40F8803B0E4B40F80C3B0D4B40F845
:10080000083949F6292340F80C3B4BF6894340F858
:100810005C39094B4365826442644161416601670A
:1008200081664167C167704700C00148010002004E
:10083000002F2F18008ABEC0CD9ED3C670B52248A7
:10084000B0F90410002900DA4942204E8DB2314639
:1008500072880988A2F57F43FF3B14D0C2EBC20324
:1008600003EB02120A441823B2FBF3F272803288BF
:100870007388D21A144B12B282801C780023002A8B
:1008800007DC14B102E07180F1E7C3800124047039
:1008900003E0012C00D1C3800370052D01D2C38079
:1008A00008E01E2D02D9C380718003E0C188B1F534
:1008B000C87F03D2C188491CC18070BDC3807088C5
:1008C0001044708070BD0000440000186C020018D5
:1008D00070B500250E49142003F008FC0C4940F2C5
:1008E000E13222394C8CA4F10A0090420BD800204E
:1008F00081F82800074A2723A2F1500120B200F016
:100900008DFA054602E0012081F82800284670BDD6
:100910008E0200189E67001110B50749212003F0D0
:10092000E5FB054840F2EC411038008A48430621B7
:1009300001EB902080B210BD7C02001810B5284950
:10094000222003F0D3FB26492320891C03F0CEFB91
:1009500023492420091D03F0C9FB21492520891DB5
:1009600003F0C4FB1E492820083103F0BFFB1C49DB
:1009700026200A3103F0BAFB194927200C3103F075
:10098000B5FB174929200E3103F0B0FB144C154973
:10099000123C208CC0EB001001EB4010E72190FBD3
:1009A000F1F001B2104800F108024180B2F90030C4
:1009B000506803FB0101B2F90230C01303FB1010B1
:1009C00000F31E005060C013E081FFF781FFA0819B
:1009D000FFF7A2FF2080BDE81040FFF72FBF000007
:1009E0007E020018D8FBFEFF4400001830B585B029
:1009F0006FF025039C1E0294CDE903324FF4FA6593
:100A00008F22CDE900259123642204F029F905B055
:100A100030BD04F0ADB9000070B5194800252A2199
:100A2000006805801748FFF774FB16488E212A30AE
:100A3000FFF76FFB13481821B830FFF76AFB114826
:100A40001021D030FFF765FB03F0DCF90D4AA4322A
:100A500002F12C04E11DA01D00F040FDA4F1640191
:100A6000A1F14A0002F0ADFF02F0DAF8A4F188012A
:100A700001F1960004F07CF96570A57070BD00006E
:100A8000848600113C050018F0B58DB003F088F89D
:100A90003E4CA089F0B300203C4EB83EB07303F04A
:100AA0008BF906F1A40101F13300421ECDE90020CB
:100AB00002912279B4F90210B4F900000BAB00F0F6
:100AC000EEFCB6F90A20B4F91610607D02F086FF3C
:100AD00006F16C0101F16E035D1EA1F14A02CDE940
:100AE0000653CDE90821227D6C31093DCDE9045141
:100AF0000AABCDE90223227CE17BCDE90012A37B86
:100B0000627C9DF82C1002F06BFE214F3868407813
:100B100018B106E0FFE70120BEE701F079FF307D64
:100B2000E8706FF0250119488A1E02927038CDE9ED
:100B300003104FF4FA638A20CDE900031349B4F996
:100B400002008C236422263104F08AF895F90E0005
:100B5000002817DDBDF9280040F6CD41884201DDAF
:100B6000A98000E0A880F07BE87238683968407896
:100B7000401CC0B24870092802D93968002048706A
:100B80000DB0F0BDBDF82800ECE70000F40500183A
:100B900084860011094910B54888401C80B24880FD
:100BA000032803D30020488000F08AFD05F055F9A2
:100BB00003480188491C018010BD0000DC000018BA
:100BC0001A0000180149086008607047546000501E
:100BD00010484CF6162141620F490162EFF3108173
:100BE00011F0010F72B60D4B4FF098021A700C4ABB
:100BF00082614FF0A8021A7000D162B60949816083
:100C00000021016041600161416107488160042168
:100C100001627047004003400100550CAC50005089
:100C2000011E1E005151020100800148F0B540EA4A
:100C3000010717430024FF07DDE9056557EAC37C78
:100C4000164F05D15FEAC67C02D15FEAC57C08D0A9
:100C50004FF0013CC7F800C040F2011CC7F804C0C7
:100C600000E0012443F001031B0641F0010143EAC7
:100C7000014142F0010241EA0221014341F0010039
:100C8000386045F0010046EA002040F0010078603D
:100C9000002C02D0002038607860F0BD0040034096
:100CA00004490A68000422F4E02200F4E020024330
:100CB0000A6070470840034004490A68000222F4B1
:100CC000F85200F4F85002430A60704708400340AD
:100CD000F0B503888B4205D35C1AA34200D20024EE
:100CE000A5B200E000254FF4803719447E1EB942BA
:100CF00000D331468CB289B24FF47A73994200D94D
:100D00001C4601211180002100EB41035B88AB42AE
:100D10000ADBA34208DC13889C465B1C0CF1010C27
:100D2000BC4500D333461380491C0529ECDBF0BDDC
:100D30007047000070B5114CB4F84400104D4006E7
:100D400007D5B4F86800400603D503F0C5FE40207F
:100D50002880B4F84400000607D5B4F868000006FF
:100D600003D503F0FBFE802028804FF0502090F840
:100D7000901141F0100180F8901170BD00C000404A
:100D80000CC000401A488021018640F2E73181847E
:100D9000891E018540F21E718185002120F8141FF3
:100DA00081800181022282812E23A0F84430A0F8A4
:100DB0004C1048F23F03A0F84830A0F8401040F231
:100DC00033338385818751028186C02101864FF4A8
:100DD000A851A0F86C104BF22531A0F85810A0F8DB
:100DE00060200348001D40210180011401807047EC
:100DF00000C0004003480121C160016841F48061E6
:100E0000016070470080014810B5002303E0CC5C0E
:100E1000C4545B1CDBB29342F9D310BD30B5B1F9B9
:100E200000505C08854203DDB2F9000030BD641E4D
:100E300031F91450854203DD002CF8D100E0641C28
:100E40009C4205D201EB4405B5F902508542F6DD1E
:100E500001EB440531F814106D88401A6D1A000436
:100E60008009ADB2B0FBF5F19C4202D132F9140019
:100E700030BD02EB4400B0F9023032F914001A1A06
:100E80004A4300EBA22000B230BD03004FF0000047
:100E900007D013888B4202D25B1C1380704701205D
:100EA000704700211180704703480249816000218A
:100EB00081627047000A00180040015030B5104BA5
:100EC00000204FF6FF725988914201D2491C598087
:100ED0004FF0007403EB40018A7915060AD502F041
:100EE0007F057F2D04D204EBF2124FEA726200E01C
:100EF00000228A71401C80B21F28EBD330BD000055
:100F00000A030018094945F2AA5200200A8001226A
:100F10004A8040F27C628A80024601EB4003401C1A
:100F200080B2DA801F28F8D3704700000A03001847
:100F3000084A00211088538818449388184480B2C6
:100F400002EB4103491CDB8889B2184480B21F2997
:100F5000F6D370470A03001808B500211F2806D2EF
:100F6000054901EB4000C088ADF8000000E00091A9
:100F7000BDF8000008BD00000A03001810B50F4CB2
:100F80000F490D48C4E90101462262800D4903F072
:100F900051FA00F087F938B962880A49A06803F06D
:100FA00049FA00F07FF920B1FFF788FF0120607057
:100FB00010BDFFF7A7FFF9E700B00011900000187F
:100FC00000B800110A0300182DE9F041934E944D2A
:100FD000002496F906102888002902DD40F001005F
:100FE00001E020F0010028806888C90F61F300004B
:100FF00068808B4896F907108088002902DD40F050
:10100000010001E020F00100A880E888C90FDFF8A6
:10101000148261F30000E880B8F80A102A8961F3AD
:101020000002B8F80A10B8F80A004B08698963F39F
:1010300000018308A8897C4F63F30000337A63F3CF
:1010400088022A81727A62F388016981B17A61F338
:101050008800A881698A386860F300016982A98ADA
:10106000420862F30001A982E98A820862F3000162
:10107000E982298BC20862F300012983698B020986
:1010800062F300016983A98B420962F30001A9831D
:10109000E98B820962F30001E983298CC20962F3BA
:1010A00000012984698C420A62F300016984A98CD9
:1010B000820A62F30001A984E98CC20A62F300018A
:1010C000E984298D420B62F300012985574909689B
:1010D000B1F57A7F18D9A98DC20C62F30001A985F8
:1010E000E98D020D62F30001E985298E420D62F35C
:1010F00000012986698E820D62F300016986A98E3E
:10110000C20D62F30001A986E98E420E62F300016E
:10111000E986298F820E62F300012987C10E688F4C
:1011200061F30000688715F8140000F00101204603
:1011300000F088F8042C3DD0052C3BD0062C39D08B
:1011400015F81400C0F3400200F00101204600F041
:1011500095F835F81400014660F3410125F81410A4
:10116000641CE4B21F2CDED3314C0025207810B172
:101170002570FFF7C7FE607800284DD02D490888FC
:10118000412849D9B0F58C7F46D2B1F90E0010F153
:10119000230F41DD96283FDAB8F8020000283BD142
:1011A00096F90600401C19D03868C00216D4B078F1
:1011B000A0B90FE035F81400420AC0F386012046BA
:1011C00000F05CF835F81400810861F34F2025F831
:1011D0001400BEE71848C07800281DD03868174EA4
:1011E000800106D56188304603F064FB38688001D1
:1011F00012D46570FFF79CFE09493E31A1F8440006
:101200006288304603F074FB6288BDE8F04104490F
:101210000B483E3103F06CBBBDE8F0810C060018B2
:10122000CC020018980200188C0000189C000018CE
:10123000900000186C020018B200001800B00011F5
:1012400000B8001110B5002913D01F2811D2094988
:10125000094B01EB40014FF001028879040602D4EA
:1012600040F0800001E0440603D020F07F00887148
:101270005A7010BD0A0300189000001891420CD952
:101280001F280AD2054901EB4000C179FF2904D289
:10129000491CC17102490120487070470A030018B7
:1012A0009000001810B5FFF743FE07490A88A2F521
:1012B000AA43AA3B05D1B1F84410814201D10120D3
:1012C00010BD002010BD00000A030018F0B55C88B6
:1012D0008C4203D1B3F90040844201D0012500E0E3
:1012E00000251E7A02244FF0010C03273EB15E7ADE
:1012F000012E0CD0022E1ED021B1FDB120E083F8CA
:1013000008C009B95C7214E05F72DC800EE000294D
:10131000F8D0002DF8D1DC888C420AD2651C641C00
:10132000B4F5803F01D34FF6FF75DD809C881480B3
:1013300006E0108004E00029FBD0E5E783F809C04F
:101340005980188010889880F0BD00220A724A7275
:10135000CA800280704710B54FF0E02291694FF4C7
:101360007A7407E093698B42FCD393698B42FCD873
:10137000A0F57A70A042F5D200EB8000C100906920
:10138000884206D3431A9169994201D98142FAD31E
:1013900010BD5369091A5B1A91698142FCD39069A7
:1013A0009842FCD810BD10B50022C2F10403C2F16E
:1013B000050431F81330521C21F81430052AF4DBEF
:1013C000088010BD2DE9FE438946DDE90C54DDE9B6
:1013D0000A680100207B174648D020B9204600F05B
:1013E00055F801202073ABB3002034F8101025F815
:1013F0001010401C0628F8DB29464846FFF7D3FFAB
:1014000000204FF47A736A4635F81010994201D8DB
:10141000012100E000211154401C0628F4DB9DF856
:101420000010002021B11118497809B1012100E014
:101430000021401C0528F5DB88F8001059B102AAEC
:1014400014212846FFF744FCBDF80800042802D305
:101450002888308000E03780002035F8101024F80C
:101460001010401C0628F8DBBDE8FE830028FBD0E6
:1014700000202073F8E700224FF4FA6321F81230BD
:10148000521C062AFADB00210180704700214FF42C
:10149000FA6220F81120491C0629FADB70472DE971
:1014A000F0471D46DDE909640B469046814631460A
:1014B000184604F10A02089FFFF798FA22463946B7
:1014C000484603F0F8FF387820B9307810B95FEA61
:1014D000080000D001202870BDE8F08770B51446E0
:1014E0000A46054604F10A011046FFF792FA214622
:1014F0002846BDE8704004F046B8000010B5124C14
:1015000094F8C80000EB400004EB800050F8CC1FBA
:10151000028951434268408902FB001040F2E731E2
:1015200090FBF1F043F2C8214143C913C4F8E41021
:1015300001B20648C43401F071FE43F2C8214843A9
:10154000C013206010BD000074030018D400001800
:101550002DE9F0474E4DD5F8C4C0D5F8E410B1EBF5
:101560000C0001D5ACEB01004A4E494A00B2B080F4
:10157000B2F8E4200A2814B201DDF48001E0A6F8F4
:1015800006C04448B6F906300027028840484FF4A8
:101590007A784FF6FF7AB0F90400C8F10009682B99
:1015A0001DDD524501D2521C3280683B1AB233888D
:1015B000322B42D93780002808DD821A12B2A5F8F2
:1015C0008620424539DAA5F8868036E0024412B218
:1015D000A5F888204A4530DDA5F888902DE0BCF1BB
:1015E000660F37DA0AB1521E3280294AB5F9003047
:1015F000B2F90220002B04DD02F132029A4204DB30
:101600001BE01ADA32339A4217DD7288524501D252
:10161000521C728092B2322A1CD9778000280EDDCB
:10162000B5F8862041F27073193212B2A5F88620FF
:101630009A420FDDA5F886300CE077800AE0B5F815
:101640008820154B521F12B2A5F888209A4201DA61
:10165000A5F88830B6F908305A1A00D5CA1A11B25E
:10166000282912DD002808DD401E00B2A5F88600FA
:1016700040450ADAA5F8868007E0401C00B2A5F8CC
:101680008800484501DDA5F888903481BDE8F087E1
:1016900074030018C000001890E8FFFF064810B55A
:1016A000018841F040010180FFF748F900F02AFD70
:1016B00002490120087110BD08000140DC0000183B
:1016C0002DE9F047834F844DB7F90C10B5F90000B0
:1016D000002902DD002803DB06E005DA002803DD2F
:1016E00000F074FC00F01EFC7A4E28881C36B8818D
:1016F0003079DFF8E491794C09F13C09022822D0D5
:1017000003287CD000F062FC4FF04020806D80B256
:1017100024F8460FD4F81E10B1FBF0F16180618C03
:10172000414321F30F316183A18C484320F38F2083
:10173000E88668874042A8862887288BA882688B1D
:10174000E882BDE8F087FFF7D9FEA08EF0B16449CA
:10175000B1F84C200021012A52D0A186A4F84C10E7
:10176000B5F9A400B5F8AE104843B5F8B010C1F112
:101770000F010841E18E90FBF1F001B2484601F003
:101780004DFD6880B5F8E4003881BDE7534AB5F9EE
:1017900000005032216C4FF00308002815DDB4F929
:1017A0001E0001F081FDA4F84A00B4F93C10414349
:1017B00021F3CF31A4F84C10B4F91E108842CFD1D8
:1017C00086F80480B5F9040016E0E08B404200B2D0
:1017D00001F06AFDA4F84A00B4F93C10414321F33A
:1017E000CF31A4F84C10B4F91E10C842B8D186F815
:1017F0000480B5F9040040428003E860B0E702E0ED
:10180000401EA086AAE7FFF779FEFFF7A1FEB5F814
:1018100086006883B5F888002883B5F9A400B5F878
:10182000AE104843B5F8B010C1F10F010841E18E88
:1018300090FBF1F001B2484601F0F0FC68802A8884
:101840002549101A03B251F80C0FB1F9062003FB19
:101850000200B1F90820D203904204DBB1F90A205A
:10186000D203904200DD10460860B1F904205A43CB
:1018700002F3180200EB8210B1F90C20C013904261
:1018800001DA104604E0B1F90E10884200DD084686
:10189000104900B224318A7B012A18D1114AB1F9CA
:1018A0000610126832F911300F4A32F9112000FB8C
:1018B00003F121F3CF33002B02DB21F3CF3102E020
:1018C00021F3CF3149425043E98020F3CF30A88043
:1018D0001AE70000C0000018740300185C04001828
:1018E000F86700113C0100186C68001170B52948B8
:1018F000294DA0F130040189A4F5AE76C1F30B03A4
:101900006B808188C1F30B02AA809918C160A08DF9
:10191000191A801A09B2E98000B22881D21A6A81A4
:1019200096F8C8305B1C03F0010386F8C83003EB5F
:10193000430306EB8303CC33002901DB0E4600E0B2
:101940004E421E60002801DB064600E046425E6013
:101950006D692E8A1E816D8A5D81638C062B13D280
:10196000DFE803F00305070A0D0F618105E06281DE
:1019700000E06081A18109E06081A28106E06281CE
:1019800000E06181A08101E000F020FBA08860847C
:1019900070BD000000050018F40000182DE9FC4798
:1019A0008D4C00260196608AA082208A6082FFF713
:1019B0009DFF04F118003546D0F86600A4F1680ACE
:1019C00001B201F38F02001401EB400044F6E7116D
:1019D000484362F30F0520F34F3060F31F45DFF8F3
:1019E000FC91CAF86850208AD9F800108009DFF805
:1019F000F08131F910102BB203FB01F238F910001D
:101A00004FEAE23C2A1402FB00F50CEBE5354A43B1
:101A1000D113434305F30F05B446A1EBE33065F35F
:101A20000F0C00F30F0060F31F4CCAF86CC000F0FD
:101A30009BF9A4F1E80595F88400401C00F01F0014
:101A4000A5F88400B5F8AC10202973D005EB400050
:101A5000E18AA0F8441095F8840095F8AC20801A2B
:101A600000F01F0005EB4000B0F84400081AA5F88C
:101A7000A40095F8B21000B20841A5F8A600E28AC9
:101A8000B5F8A810574B521A12B2DA81B5F8AA70FD
:101A9000574300EBE73000F30F001882084481B28F
:101AA00051484D4FA5F8A8100279E83F07F11C00F6
:101AB0002C37032A46D0B4F85810B4F84C201144FF
:101AC000A4F858102182A988A288891A09B201F0C5
:101AD000C5FBA081E088404201B2384601F0BEFB60
:101AE000E081B4F90C10B4F84800414321F38F3180
:101AF000ADF80410B4F90E10414321F38F3036498C
:101B0000ADF80600743101A801F0B4FA694601F09D
:101B10003DFB314BBDF800207433198A914201D24C
:101B2000ADF80010998C7F2918D9BDF800105980A4
:101B30002CE0FFE705EB4000E18A30F8442F0180FC
:101B4000881A94E72182E988A288891A09B201F0EB
:101B500085FBA081A888E188401ABDE71E4D5E8004
:101B6000A4359A6AED68491C2A4489B29A6299841C
:101B700080290BD1C2F30F21DA898A4201D911469B
:101B800003E064328A4200D291B29985218A0844E6
:101B900081B219805888B4F860208909504320F335
:101BA0000F3080B2A4F86C00D9F8002032F911206F
:101BB00038F91110424322F3CF32484362F30F0643
:101BC00020F3CF3060F31F460348CAF870607430CA
:101BD00000F040F9BDE8FC875C0400183C010018E7
:101BE0006C680011F4000018DC0000182DE9FC4FAF
:101BF000DFF868C1C2F30123594E5CF823400CF1B1
:101C00000C08F46258F82330C2F3011733635CF810
:101C10002750756358F8277002F00302B7635CF829
:101C200022C0C6F83CC058F8222000EB010EAEF2EC
:101C3000F318C8F10008C6F824804FF0000B326496
:101C4000B8F11E0F01DAC6F824B0B146B68C268072
:101C5000461A06F2F3164FF47A7AC9F824601E2E5B
:101C600002DAC9F824B005E040F2C938464501DD82
:101C7000C9F824A0B9F824602E800EF2F31640F2C1
:101C8000C93EC9F82460764501DDC9F824A0B9F839
:101C90002460ACF8006026881E802E883E80BCF848
:101CA00000601680B5F8008026880196A8EB06062D
:101CB000C9F82460C82E1CDAC6F1C806C9F8246029
:101CC000DDF8048000964644C9F82860764502DDB8
:101CD000A4F800A000E02680B3F80080009CA8EBE8
:101CE0000404C9F828401E2C02DAA3F800B000E072
:101CF0001C80BCF800602D884C46751BC9F8245028
:101D0000C82D16DAC5F1C806666215883544A56285
:101D1000754502DDA2F800A000E01580BCF8005077
:101D2000AD1BA5621E2D02DAACF800B001E0ACF8E4
:101D300000501B883D880B4E2B4406EB53035D423D
:101D4000D9F81C309D8112883C88224406EB52024F
:101D50005242DA8118825982BDE8FC8F5468001122
:101D6000F400001832F8FFFF2DE9F041364D374CF2
:101D70004FF00008B5F90000B4F90810628B014477
:101D8000B4F900005043A1EBE03000F30F0104F17F
:101D9000240001F053FAB4F90010A28B05F12406D7
:101DA0005143A0EBE13000F30F003080B5F90200A1
:101DB000B4F90A10628B0144B4F902005043A1EB5C
:101DC000E03000F30F0104F12C0001F037FAB4F910
:101DD0000210A28BA5F120075143A0EBE13000F3E4
:101DE0000F007080A5F11401786C01F0CFF93988EB
:101DF0000844E082B8894FF4FA414843C00B00F32D
:101E0000100001B2A4F14C0001F018FA104AB6F922
:101E100000105342814201DD2A8006E04442A14283
:101E200001DA2B8001E0A5F80080B6F902108142AA
:101E300002DD6A80BDE8F0814042814201DA6B80B8
:101E4000F8E7A5F80280F5E7140100185C04001813
:101E500070FEFFFF70B54188304C0246D9B1108842
:101E60002F4E00EB40004000030CC0F30725C5F1E6
:101E7000FF00938036F810004843000CD08036F8FD
:101E800015506943090C1181052B43D2DFE803F09B
:101E90001113171A2000E06940F2F3110180C1808C
:101EA000418001818180418140F2E7318181C1819E
:101EB00012E012220EE00B464FF4817205E04FF45F
:101EC000907207E00B464FF404720146184601E099
:101ED00040F20122FFF78AFEEFF3108010F0010FAD
:101EE00072B6E1690B88A06903804B8843808B88B8
:101EF0008380CB88C3800B8903814B8943818B8985
:101F00008381CB89C3810B8A0382498A418200D1B4
:101F100062B670BD0B462122D7E70000F40000181E
:101F2000848400117CB5254C2079012845D100F02E
:101F30001DFC234940F2F3100880091D0880091D8B
:101F400008801F4B103B402018801D4944317A20E7
:101F500008801B4D40F2E73014352988184A0C32AE
:101F60008142108001D8401C28804FF480401880A6
:101F70001448017821F004010170FE2101750C2143
:101F80000174017841F00401017002251D800C48A4
:101F90000C38018821F03F010180018841F0800167
:101FA00001800948FEF70EFE03200090034602461A
:101FB00001460190FEF73AFE25717CBDDC00001859
:101FC00014C000400050004800FC1F1F7CB50F4D9E
:101FD0002879032803D0022801D0042815D1002431
:101FE000009423462246214620460194FEF71EFE19
:101FF000074901200880287106484480C0F8C44081
:10200000C0F8E44001481C3804817CBDDC000018A5
:1020100004C000407403001870B5134C134D144EE7
:102020002088473877280AD21248B0F9000010F10A
:10203000280F04DD962802DA00F01EF808B1A888FF
:1020400070817189A1F2DC50B0F5967F94F8290077
:1020500002D940F0010001E020F0010084F82900DD
:10206000C00700D1A98070BD6C0200180A030018D7
:10207000C000001846000018204B10B500201A6858
:10208000014622F480721A601C4C243406E0491C7C
:10209000C9B2C82901D9012000E00020226812F04D
:1020A000010F01D00028F2D0002110BB4FF04024D6
:1020B000226822F0700242F010022260226842F090
:1020C0000402226006E0491CC9B2C82901D90120D6
:1020D00000E00020226802F00802D20801D018B106
:1020E00007E00028EFD004E0E16E054AC1F30B01E0
:1020F0005181196841F48071196010BD5040004051
:10210000C00000182DE9F04FFF4CDFF800848BB0C1
:102110000020E08042F23211A8F8101041F62D6242
:10212000A8F8122040F6D252A8F81420F84AC8F8AD
:1021300018204FF40002B2FBF1F1F74EA8F8161088
:10214000F44D306820F006003060F44F386801909C
:1021500078680199FDF7E8FF29460090FDF7E4FF54
:10216000A4F11C09DFF8B8A3C9F81000504503DA40
:10217000306820F006003060DFF8A8B300985946B8
:10218000FDF7D2FF57464FF0020AC9F81000B842D7
:1021900006DA30685D4620F0060040F0020030604C
:1021A000E1490098FDF7C0FF4FF0040BC9F810009B
:1021B000B84206DADC4D306820F0060040F004003A
:1021C0003060DA490098FDF7AFFFCF491C39B842BB
:1021D000086104DAD54D306840F006003060CF4E1B
:1021E00029460198FDF7A0FF0146CA48FDF7CEFF3A
:1021F0000290FFF711FFC44DC4481C3D6989C1819D
:10220000F068FEF77CF906460F460298FEF777F96C
:10221000CDE900100F22FEF7E4F8884632463B462F
:102220000390FDF7FDFF0022C14BFEF76BF8FEF7B0
:1022300079F9C04F2861B84200DD2F612869FEF7A7
:1022400012F9BD4E7083B5480069FEF758F9024691
:102250000B4641460398FDF7E3FF4FF02042B74B92
:10226000FEF750F8FEF75EF92861B84200DD2F61F5
:102270002869FEF7F8F8B0498883A448008AFEF779
:10228000CCF802460B46AE48AE49FDF7C9FF88467A
:1022900006464FF06042AC4BFEF734F80F22FEF7D3
:1022A000A0F84FF0FF32FEF79CF8FEF70FF9A249B5
:1022B0000622486630464146FEF793F88046894636
:1022C0000F225007A049FEF78CF806460F22039113
:1022D000FEF787F842464B46FEF714F8FEF7F6F88D
:1022E00095490522A1F8680095489649FEF779F8C6
:1022F00002460B4630460399FEF704F8FEF7E6F86F
:102300008D49DFF818820A46A1F86A00B8F83A0049
:102310000690D086D8F83C000299FDF737FF0F21D0
:10232000FDF772FF4FF07E562861B84201DD2F6144
:1023300002E0B04204DA2E61E08840F08000E080E4
:102340002869FEF777F87C490887D8F84000FEF73F
:10235000D6F84FF055327D4BFDF762FFFEF7E2F8FD
:10236000B94639462861484501DD296102E0B0429D
:1023700004DA2E61E08840F48070E0802869FEF77E
:1023800072F86D4FDFF894817887D8F84400FEF733
:1023900051F800B2F8830790D8F84800FEF7AFF87C
:1023A0001022FEF71EF84FF05532684BFDF7AAFFDA
:1023B000FEF7B8F84FF09E412861884201DD29619F
:1023C00002E0B04204DA2E61E08840F40070E08060
:1023D000A8462869FEF72EF8386442F6F110B8874F
:1023E0004FF4EB70B884B8853220F884F8854B4DF3
:1023F000574FA88A3882E88A7882DDE90031CDE932
:102400000213686AFEF77BF80022524BFDF708FFC3
:10241000DDE90223FDF776FFCDE90401FEF737F889
:102420003883DDE90010CDE90201286AFEF767F87C
:102430000022484BFDF7F4FEDDE90223FDF762FFC1
:10244000CDE90201FEF723F87883DDE90001089069
:102450000F46A869FEF753F800223E4BFDF7E0FE59
:102460003A46089BFDF74EFFFEF75CF8C8F81000EF
:10247000484505DDC8F81090E08840F01000E08085
:102480004546D8F81000FDF7D5FF314900B2A1F854
:1024900086000990DDE9008120480F46C069FEF7FB
:1024A0002EF800222B4BFDF7BBFE3A464346FDF7C4
:1024B00029FFFEF737F8284F2861B84204D92F6169
:1024C000E08840F01000E0802869FDF7B3FFDFF8F6
:1024D000808000B2A8F888000090DDE90201FEF7D4
:1024E00021F82861484505DDC5F81090E08840F0E6
:1024F0001000E0802869FDF79DFF00B2A8F88A006F
:102500000A90DDE9040129E0DC000018D00400187D
:10251000C4ED4D04000020410C800148F867001113
:102520000000A03F0000A0410000204200007042D7
:1025300000002A4000FEFF465C0400189999B93F4C
:10254000662321DB43843640C67D6E4055D57440FA
:1025500074030018C0FFDF4000FEFFC6FDF7E2FF76
:102560002861B84204D92F61E08840F01000E08073
:1025700076480069FDF75EFF454600B2744F25F8C6
:102580008C0F0190B86AFDF755FF01B26980029186
:102590000391F86AFDF74EFF02B2AA809046386DAB
:1025A000FDF748FF00B2E88003998C3D414503DA0E
:1025B000E18841F02001E1800299814203DAE1885B
:1025C00041F02001E18008EB0001002903DDE188F2
:1025D00041F02001E1800799814203DAE08840F070
:1025E0002000E080DDE90901884203DAE08840F05C
:1025F0000800E080DDE90001884203DDE08840F06A
:102600000800E080DFF84481786DC8F81000B0421F
:1026100002DC5049884203DCE08840F00400E0809E
:10262000C82129844FF4FA704B4B6884AB845A421A
:10263000EA842B856A85298668864848A8864142AF
:10264000E98628876987386BFDF759FF02460B46F4
:1026500043484449FDF756FE0F22FDF7C2FEFDF741
:1026600061FFC8F81000484502DDC8F8109003E08B
:10267000B04205DAC8F81060E08840F04000E08021
:102680000A20A5F8B800A5F8BA007C35D8F81000E3
:10269000FDF7D0FE25F8400C25F83E0C4FF47A707B
:1026A00028846884288368833220E88541F66A009C
:1026B00068867C3D0698FDF7ABFEB96DFDF734FDED
:1026C000FDF71DFF0222FDF78CFE02460B4600209F
:1026D0002549FDF717FEFDF725FFC8F81000B0F1FA
:1026E000844F0ADB0520A5F8B200202025F8AC0FA6
:1026F0000020A8800BB0BDE8F08F0122B0F1834F1D
:1027000006DBA5F8B2B0102025F8AC0FAA80F1E7DF
:102710000321B0F1824F07DBA5F8B210082025F89D
:10272000AC0FA5F804A0E5E7B0F1814F06DBA5F8F2
:10273000B2A0A5F8ACB0A5F8B010DBE7A5F8B220C0
:10274000A5F8ACA0A5F8B0B0D4E70000C000001810
:10275000F86700110AD7233C9091FFFF3CBFFFFFB1
:10276000FA7E6ABC7493683F006A184110B5254828
:1027700000241422048044808480C4800481448125
:10278000848184848462C18981851F4840F2F31169
:102790000180C180418001818180418140F2E73127
:1027A0008181C18101461430FDF79AFC1748184A0F
:1027B000048044808480C480048144818481C481F5
:1027C000048244828482C482048384620463046534
:1027D000418F818641F25551A0F85810002102EB3B
:1027E0004103491C89B2A3F844401F29F7D3548000
:1027F000008F9080D480D461D4621464C2F8984071
:1028000010BD0000D0040018140500185C04001866
:10281000740300180148007870470000A0000018F9
:10282000082802D20249085C7047FF207047000068
:10283000A9000018082802D2014A0021115470474B
:10284000A900001870B502F027F82F4C01210025CF
:102850006174257462780AB3012A30D0032A3CD00F
:10286000052A1AD1E27804F10C015054E078401C9A
:10287000C0B2E070022810D3A089E18940BA814239
:102880003DD12249207808702048A278211D0930C6
:10289000FEF7BAFA65706574257470BD05280BD013
:1028A00004DC012808D0032804D105E0102803D057
:1028B000202801D0002023E02070617070BDC0434B
:1028C0002178C0B2814206D1032060700820A07038
:1028D000E570E58170BD012012E00B49E278091D29
:1028E0005054E1890844E081E078401CC0B2E070B7
:1028F000A1788842EED305206070E57070BD02209B
:10290000BDE8704000F050B850030018A000001857
:1029100010B5094C07210822617020700020E0707A
:10292000E081A2700549201DFEF76EFA2078BDE80F
:10293000104001F0B7BF000062030018A1000018AA
:1029400010B5184C21466078C98902280CD004289B
:1029500024D006281DD0072815D12078C043C0B246
:1029600001F0A0FF02201AE0E078A27890420BD29A
:102970000C4A121D835C1944E181805C01F092FFD6
:10298000E078401CE07010BD080A01F08BFF0620C3
:1029900005E0C8B201F086FF042000E00920607065
:1029A00010BD000062030018024800214174017448
:1029B0004170704750030018012202EB400010B52F
:1029C000C0B2082807D201F50041034A0B0A1418C7
:1029D00004F8013C115410BDA1000018012202EBC3
:1029E000400010B5C0B2082807D201F50041034AE3
:1029F0000B0A141804F8013C115410BDA100001872
:102A0000082801D2014A115470470000A1000018A3
:102A10002DE9F84F6E48002200906E4B01211046C0
:102A200000F0E0F881466A486B4C0E380090A079BF
:102A300008B1012100E00021664B00229B1E1046D8
:102A400000F0D0F8804662481C38009094F90700E6
:102A5000002801DD012100E000215E4B00221B1F48
:102A6000104600F0BFF85D49594F8A7BA7F16C070B
:102A7000B2F1000A01D0BA7E12B9227A142A01D327
:102A8000012600E000260B7C0BB1FA7E12B9627AB7
:102A9000142A01D3012500E000258B46C97B09B12A
:102AA0003A7F12B9A27A142A01D3012400E000244B
:102AB000484A283A92F80FC0BCF1000F01D000201C
:102AC00021E0B8F1000F01D001201CE008B1022084
:102AD00019E0508900B10120BAF1000F03D016B1FE
:102AE00008B103200FE01BB115B108B104200AE0C2
:102AF00019B114B108B1052005E09BF8140008B124
:102B0000062000E00720B9F1000F1DD0344901EB89
:102B100040018889898B97F818C000234FF0020A7A
:102B20004FF00109BCF1000F11D097F819C0BCF1AA
:102B3000010F1BD0B7F810C0BCF1010F37D888B314
:102B400087F81990137530E000200121E3E787F83A
:102B500018903982CC46F88118B187F819C01375DE
:102B600031E087F819A082F814C00DE0B7F80EC064
:102B7000BCF1010F0AD8B7F81080B8F1000F05D0EA
:102B800087F819A082F81490FB811CE01375BCF142
:102B9000000F08D0ACF101010846614500D90020C2
:102BA000F88110E003E03A8A6AB93982F8E782F8DE
:102BB0001490BCF1000F06D0ACF10101084661454C
:102BC00000D900203882BE76FD763C77BDE8F88FCC
:102BD000D2050018640500180C060018F40500184A
:102BE00088860011F0B50E46059C1F461546A17853
:102BF000B14201D2054603E0E078B04200D8258812
:102C00003A4629463046231DFEF760FB388800B15E
:102C10000120A670E6702580F0BD091DFEF795BB6A
:102C200000B50E490E48FFF7F8FF0C490C480E3965
:102C3000801EFFF7F2FF094909481C39001FFFF702
:102C4000ECFF064800216C384FF6FF7201764176A2
:102C5000C281028202482838017500BDD2050018E1
:102C6000640500182DE9F04302460879D51C0226B8
:102C700041F28B384FF4E17901234FF4803C4FF659
:102C8000FF7740B14879012811D04C880A2C22D313
:102C90004B7100201DE00B712846654500D3384676
:102CA0004245F5D84845F3DB4E71012023E00C88FE
:102CB0000A2CF9D2002041F2C615A2F5E172AA420F
:102CC00007D8651C641C644500D33D460D80BDE8F3
:102CD000F0830B80FBE701202E46654500D33E467E
:102CE000424501D84E4506DA621C641C644500D397
:102CF0003A464A80EBE74B80E9E700220A714A71C5
:102D00000A804A800270704700220A714A710A8064
:102D10004A800270704700000D48002101814FF683
:102D200024220284C21482814FF6FF7282840182BF
:102D30004FF6184303858182911E8185811401839A
:102D400002864FF6F271818348F65E4181807047BA
:102D50000000014070B54FF0502494F85C010C4D18
:102D6000C00707D094F86001C00703D000F012F844
:102D70000120287094F85C01400707D594F86001A1
:102D8000400703D500F018F80420287070BD00003B
:102D9000645100500648018C4FF6242211440184EE
:102DA00004480079012801D0FEF7F8BD7047000003
:102DB00000000140DC0000187047704710B54FF06C
:102DC0005020002100F8191BC172FF23C373C17585
:102DD000C022C276C17780F82310052280F84321F3
:102DE000164A4FF0FF145462154C546111629162FF
:102DF00080F8BB109C02D465134C124A2260241D3B
:102E0000124A2260241D124A2260241D4FF0F03223
:102E100022604FF0E02440F62142C4F800218022D5
:102E2000C27080F86B3180F86F3180F82B1180F818
:102E30002F1108499005086010BD00000060005087
:102E4000C7FF3F3F10F0F00000E400E0F000F0F0BA
:102E5000F0F030F020ED00E00848016821F00601B4
:102E60000160016801F4E021090C0129F9D1062172
:102E700001604FF0502080F89410704700E0014846
:102E800010B502F065FD0A280AD00020054CE0705C
:102E9000002002F033FC2080FF2800D0A08010BD6D
:102EA0000120F3E7B20000182DE9F0416D4A00213E
:102EB000084653896C4DDB0703D02B7A022B00D3D5
:102EC0000121538953895B0700D50120674CE388B2
:102ED00023F44373E38019B123F00C01091DE18051
:102EE00050B1D06840060FD5A87A022804D3E088F4
:102EF00020F00C000830E0805A4811794FF47A63D2
:102F0000406A012906D018E0E08820F4407000F5FE
:102F10008070F0E7117A81B1E08820F03000203035
:102F200000E01030E08095F90600411C0BD001282C
:102F3000E08820F0C0000BD00BE09842E08820F041
:102F40003000EED8EEE7E08820F0C000803000E0EE
:102F50004030E08095F90700012808D0401C0BD0D4
:102F6000A87B0128E08820F0030009D009E0E08870
:102F700020F00300801C04E0E08840F0030000E043
:102F8000401CE080B2F900004FF47A71484345F6E6
:102F9000A02690FBF6F0C1B22170B2F9020041F216
:102FA0001C770025FF23B84201DD637009E000288B
:102FB00001DA657005E04FF47A77784390FBF6F01C
:102FC00060702B4E3088FF2801D9A37000E0A070FC
:102FD000B6F90E0010F1320F01DAE57005E0CD28E8
:102FE00001DDE37001E03230E070106B002801DA9F
:102FF000257104E0FF2801DD237100E0207101202C
:1030000002F084FB6178022002F080FBA1780320AB
:1030100002F07CFBE178042002F078FB21790520A6
:1030200002F074FBA07900F00301062002F06EFBB1
:10303000A079C0F38101072002F068FBA079C0F3FA
:103040000111082002F062FBA079C0F38111092070
:1030500002F05CFBE088BDE8F041C0F301210A20EA
:1030600002F054BB980200180C060018B8000018B3
:103070006C02001870B50C460546B0F90010B5F9A1
:10308000022001FB01F002FB0200A369002683423B
:1030900037D20846FDF720F80146608A814211DDEB
:1030A000B5F90010002901DA414200E081B2304652
:1030B00061F30F00B5F902100029A18A1FDB61F34B
:1030C0001F4070BDB5F90000FDF706F8E18A80B237
:1030D0004143C1F3CF304FF48071884200D9084694
:1030E0000B492A8831F81000218A4143304662F3A7
:1030F0000F00B5F90220C1F30F21002ADFDA49429F
:10310000DDE7304661F30F0062F31F4070BD000041
:10311000828200110249212081F8340070470000AA
:103120000040005014484FF47A7100220181134985
:10313000898841818281124942718271CB894380A1
:103140000B880380498841820E490968C1F30061F8
:1031500001710D494B8903F0010383734B89C3F35C
:10316000400303744B89C3F38003C3730B7A037565
:10317000CB7E4374CA767047F4050018B20000187D
:103180006C0200188C0000189802001870B503B289
:103190001D1E00DA6B420214144600D562421D481F
:1031A0001D4E9A4218DC9202B2FBF3F230F8120084
:1031B00036F812205A43D20B0A80002D04DD002C71
:1031C00025DAC0F5803022E0002C02DBC0F500409B
:1031D0001DE000F500401AE09B02B3FBF2F330F86B
:1031E000130036F813305343DA0B0A80002D07DB47
:1031F000002C02DDC0F5804009E000F5404006E00B
:10320000002C02DD00F5804001E0C0F5404080B2B6
:1032100070BD00006C7200116E7A0011B0F90030C0
:10322000426803FB0121B0F90230D21303FB1211F3
:1032300001F31E01416041F3CF307047B0F9003017
:10324000426803FB0121B0F90230D21303FB1211D3
:1032500001F31E01416041F3CF307047B0F90630F1
:10326000026801FB0322B0F90830DB039A4204DB59
:10327000B0F90A30DB039A4200DD1A460260B0F969
:1032800004304B4303F3180102EB8111B0F90C2019
:10329000C913914201DA114604E0B0F90E008142EF
:1032A00000DD014608B2704710B514680304A3425C
:1032B00003DD6018984203DC03E0601A984200DAEC
:1032C00018461060001410BD7047000070B5244807
:1032D000D0F8C400002800DA4042224B986022480F
:1032E000027912B14179002923D099686FF00A055B
:1032F000DE682C110023B14208DA8362416AA942D8
:1033000002D80A31416209E0446207E04362816AFF
:10331000A94202D80A31816200E08462134D816AB9
:103320004FF47A6601242AB1B14211D90372837134
:10333000436270BDB14205D903720471C471436226
:10334000836270BD416AA942FBD90472047170BDE9
:10335000416AB142FBD98471A942F8D9047270BDA7
:1033600074030018540000189802001840771B00DE
:1033700010B5FEF793F904480021017541750171FC
:103380004171C17110BD00009802001810B51A4CAF
:1033900000202070204600F073FF207810B92046EE
:1033A00000F0EAFE15492078CA68430863F300027A
:1033B000CA60CA6860F34102CA60420704D40207C7
:1033C00002D410F0300F03D0C86840F0040002E0CF
:1033D000C86820F00400C860C868C00702D1C86887
:1033E000800701D5012000E00020CA68C2F38002F6
:1033F00040EA4200887510BD560000189802001877
:103400002DE9F047504FDFF8449100253879504CB2
:1034100009F11006022801D003280DD199F80010F7
:10342000012905D1E583A5836575E562A56265621D
:10343000022820D003281ED07560464A397989F8C1
:103440000010B2F9021000297AD0B6F90030706885
:1034500003FB0101B6F90230C01303FB101000F3A7
:103460001E007060C013608010882080D2F8C400F5
:103470002063BDE8F08700F065FE58B1C10703D0B6
:10348000E16841F00801E160800703D5E06840F0A1
:103490001000E06000F07CF9387903280CD1E06A74
:1034A00010F10B0F01D80A3001E04FF0FF30E0625D
:1034B00000F010F9FFF70AFFE0684FF0010800077D
:1034C00008D4E068C00605D4E068400602D4E0688D
:1034D00080061FD5E0682061FEF778FDFFF756FFF4
:1034E000E068000702D4E068C00603D5608940F0B8
:1034F000010008E0E0684007608902D540F0020062
:1035000001E040F004006081A07E002895D084F89E
:103510001B8002E0A07E00288FD0E06800288CD1BC
:103520006089400789D5E06A42F21071884284D9E7
:10353000608920F00400608184F81B807DE7FFE74C
:103540006580756090E70000DC00001854000018EA
:1035500098020018740300182DE9F04104465748FA
:10356000574D00218088EA794FF47A6328B1298485
:10357000544846786EB33AB32BE0288C4FF6F57674
:10358000B04205D80A3080B22884984203D2EFE7CF
:103590004FF6FF702884688920F004006881E8688D
:1035A00020F04000E860E983688920F0010068812C
:1035B000688920F002006881A9626962287A08B1EE
:1035C00002B929712972D3E72E7A16B12E7906B184
:1035D0002971002C01DB264600E066423A4FB7F91C
:1035E0001E70BE4200DA002404F69F7C41F63E7E47
:1035F00009260127F4450BD952B141F28732224402
:1036000042F20E7C6F71624505D90A22C26003E066
:1036100069712A7902B9C6602C4E8CB195F804C044
:1036200041F2A862BCF1000F12D0AB790BB18280DD
:10363000144627480079012813D03480BDE8F08172
:1036400030880028FAD03180BDE8F041FEF7BEBCDA
:103650006C6A9C4201D9828000E08380B0F904400A
:10366000E7E7688918B16889D8B1A87EC8B1E96070
:10367000FFF78CFEA87D60B1698960F30001698164
:103680004108688961F341006881A87E48B1EF76FE
:1036900007E0688920F001006881688920F0020055
:1036A0006881688928B1A87E0028C7D0E87E0028F4
:1036B000C4D13480BDE8F041FEF734BCB20000183C
:1036C00098020018540000185C04001874030018D5
:1036D000DC000018F0B52C4DB5F90230B5F900103A
:1036E000002B01DB184600E0584200B2002901DB44
:1036F0000A4600E04A4212B2141A00D5841AD5F8DC
:10370000C42026B2002A00DA5242204C95B2A0F51D
:10371000FA7741F6651CA28B674519D227790FB15C
:10372000277A1FB140F6C417B84211DB002B02DD27
:1037300000290DDB02E001DA002909DC4FF4FA71FF
:103740008E4201D9322D03D388420BDA372D09D9A5
:103750004FF6F570824201D80A3206E04FF6FF704C
:10376000A08308E00A2A0BD30A3A91B240F6B83097
:10377000A283814203D9E06840F02000E060F0BD00
:103780000020A083F0BD0000740300189802001808
:103790001148D0F8C400002800DA40420F4982B234
:1037A000C82AC88B09D94FF6F572904201D80A3061
:1037B00006E04FF6FF70C88306E00A2809D30A38EE
:1037C000C88380B2322803D9C86840F04000C8607E
:1037D00070470020C88370477403001898020018CF
:1037E0002DE9FF4F81B00546DDE91662DDE90E7C6B
:1037F00092F90740DDF848B009B1002007E043EA3C
:10380000070050EA0C0001D0012000E00220D07136
:10381000844203D0012C01D1FF2111724FF0000925
:10382000B0B101281BD000248BF800902346274616
:103830001598D17A01701498917A01701398517A81
:103840000170109800286ED01199A1F80090B2E094
:103850008BF800900025547A937AD77AE8E7012C08
:1038600007D0A2F8009082F80C9082F80D90A2F890
:10387000049043EA0C0A9DB3039888B343B1507A8D
:103880000146401C491CFF2900D9FF20C4B200E0BA
:103890000024BCF1000F09D0907A43B90146401CC6
:1038A000491CFF2900D9FF20C0B200E0002067B109
:1038B000BAF1000F01D0D77A07E0D17A0B46491C44
:1038C0005B1CFF2B00D9FF21CFB2034614B1694620
:1038D000204602E0694600B9384601F04BF806E0A0
:1038E000FFE7547A937AD77A1088ADF80000107BFE
:1038F0004FF0010E02214FF6FF7870B1507B012886
:1039000012D09188BDF800C00020614517D3C4458E
:1039100015D082F80DE001201AE082F80CE0517316
:10392000A2F804E009E044E0DDF80CC00120BCF19D
:10393000000F0DD05173A2F804E0002008E001F15F
:10394000010C491CB1F5803F00D3C446A2F804C065
:1039500092F908C0BAF1000F0DD00021117261B1C7
:10396000614503D0A2F8029082F8069091798142D5
:1039700005D2002110E00121F0E7358011E05188E7
:103980008C46491C0CF1010CBCF5803F00D341462C
:1039900089B2B1F5C87F01D84FF6184535805180FE
:1039A00090718BF80000B6F90050BDF8000010804F
:1039B0003EE71198058054729372D77205B0BDE846
:1039C000F08F4FF0FF32CA710A7200220A800A7328
:1039D0004A738A804A808A710280704708B108461B
:1039E000704710467047000011480021017280F8AE
:1039F000281080F8301080F82C10022280F8202047
:103A00000171802280F8502080F8E01080F8DC10EE
:103A100080F8D81080F8EC1080F8E81080F8E410F6
:103A2000032180F86C10082180F8AC10704700006A
:103A3000004000500F481C210171002180F8401007
:103A400006220277027680F8301080F8341000F8F1
:103A5000111B022200F8052C80F83310C174C173C9
:103A600080F8272080F82B2000F8091CC170C1764F
:103A7000C1757047008002482DE9F047984691468D
:103A80000E460446EFF31080DDF820A000F001059B
:103A900072B6012001F08EFD204643F6E50188470D
:103AA000074601F093FDCFB90022B05CA054521C30
:103AB000D2B2802AF9D3012001F07CFD4FEACA700E
:103AC000410F08F0010041EA400009F001010843FC
:103AD00043F6DD018847074601F078FD05B962B677
:103AE0003846BDE8F08700003FB5164C1649E0881F
:103AF000FFF7B8F804F1160105461348CA1E801DE9
:103B0000231DCDE90210CDE90032A37B2288218953
:103B10002846FDF757FC0C4BE17C2E3B987C8142FC
:103B200003D8A0882288904201D0012200E0002220
:103B3000A274A08860801DB10020207499743FBDDC
:103B40000120FAE73C05001894050018044890F895
:103B50004000002803D00248002180F84010704740
:103B600066050018064908B5002088742E3168469D
:103B7000FFF7C3F8024903483431FDF77CFC08BD68
:103B80006605001840050018044908B5002088742F
:103B90002E316846FFF7B8F808BD0000660500182A
:103BA000034904480A89C2804989018100F09CB90F
:103BB000F40500183C05001810B50D480D4C017BAC
:103BC000E27C407B914202D8227D904201D90122C1
:103BD00000E00022084B9A7410B14FF47A7200E0B2
:103BE00000225A8001221A74E174207510BD000071
:103BF0000C060018660500183C0500180248002154
:103C0000C174017570470000660500180248002164
:103C1000C17401757047000066050018F0B54E4D7F
:103C20004E4E87B0E8884E4C308095F91630207B98
:103C300008B9607B30B10022AA75934206D0012BEF
:103C400002D003E00122F7E7FFF780FF6AB19A4252
:103C500001D0FFF799FFFFF747FF307C707495F9AB
:103C60001720404F38B1002010E00BB1FFF7CEFF16
:103C7000FFF7A2FFF1E7B07C28B9B7F91200B5F958
:103C80000010884201D0012000E00220E8750021E8
:103C900010B301283FD08DF810106888ADF81800D7
:103CA0002889ADF814002C482C4B283000900C3398
:103CB0009DF81020BDF81410BDF9180000F0ACFEFE
:103CC0007088E880788A2880BDF818006880BDF880
:103CD0001400288107B0F0BD02B1A981207B20B17A
:103CE000ADF81410ADF818100BE0607B10B1ADF812
:103CF000141002E09620ADF8140041F2A860ADF86F
:103D00001800A88928B100218DF81010401CA88146
:103D1000C9E70121F8E7012A00D06981124AB7F901
:103D200012000223911D02F0F3FB40F2D52148431B
:103D3000052101F077FC084906AC0A31039104AA79
:103D400005AB0094CDE901326B8972884FF4916123
:103D500000F026FEA7E70000660500183C050018E5
:103D60000C060018F405001888860011054A00B5F5
:103D7000907D012801D1FFF7E9FE4FF0FF309075EB
:103D8000D07500BD6605001810B5094C4FF0FF3026
:103D9000A075E075FFF732FFFFF7E4FE0020A08179
:103DA000608104F12801BDE81040024800F057BED0
:103DB000660500184805001870B5104DA98895F9DA
:103DC0001500142901D3012300E000236B759842EC
:103DD00003D0012801D1FFF7C9FF094C33B1FFF728
:103DE0001DFF607CE073A089608170BDA888401CC5
:103DF000A88000206081E07370BD00006605001897
:103E00003C0500180249FF204875FFF7BDBF0000C0
:103E10006605001870B500F0EBFC002848D0254975
:103E20000022254D897A144671B16979491CC9B2BD
:103E3000697101290DD002294FF0010211D085F8D6
:103E4000BC4085F8BD4028E085F8BC4085F8BD4001
:103E500027E095F8BC10C1EB011105EB810114318D
:103E600015E095F8BC30C3EB03115B1C05EB810139
:103E7000DBB22C3185F8BC30032B01D385F8BC4074
:103E800095F8BD30FF2B02D25B1C85F8BD3021B107
:103E900008802868486028790872012085F8BE00EB
:103EA0002AB100F097FC00F0ADFC2C606C712C7115
:103EB00070BD000036000018AC01001810B5094CA8
:103EC0004FF6FF712068884201D2401C206000F04C
:103ED0008FFC4FF63771884201D9012000E00020A5
:103EE000207110BDAC0100180B488089B0F57A7FB5
:103EF00001D3012100E000210748407911B108B148
:103F0000012200E00022054B5A7301B110B10020DC
:103F1000187370470120FBE7F40500180C06001821
:103F200070B5EFF3108000F0010472B600204B4929
:103F3000096888474A480178002321F0020101708E
:103F4000017821F001010170454888309821017005
:103F5000434D4C35297841F0C0012970A8210170EA
:103F600098210170021DB0211170A82101709821C3
:103F700001703B49203160220A70A8220270982209
:103F800002700A1D1370A82202700A7842F0020221
:103F90000A700A7822F008020A700A7822F00402F5
:103FA0000A700A7812F0010FFBD0982101700021ED
:103FB0002970A82101704FF050210A7842F00202C6
:103FC0000A70274A34320121117098210170111FA3
:103FD0000A7842F002020A70A822027000BF9822FA
:103FE00002700A7822F002020A70A82202701C4DA8
:103FF000383513222A70982202700A7842F00202A1
:104000000A70A822027000BF982202700A7822F07B
:1040100002020A70A82202709822027014220A700A
:10402000A8220270982202700D4A48321370A8220A
:104030000270982202700A7842F002020A70A822E6
:10404000027000BF982202700A7822F002020A7001
:10405000A8210170002C00D162B670BD6C870011E0
:10406000245000501148016821F0060101600168E8
:1040700001F4E021090C0129F9D16420FDF76BF965
:104080000B4800780A488430007801F0B5FA012026
:1040900001F090FA72B607499820087005496C390A
:1040A0000220087020BF20BFFEE7000000E00148AA
:1040B00000400050AC5000504FF050207F2100F8DD
:1040C000B41F012100F83C1C802100F8381C00219D
:1040D00000F8641C052202710172812202730174CE
:1040E000017780F8981080F8CC10704738B50D46ED
:1040F0004FF6FF740209ADF8004000F00F01012AED
:1041000009D0022A19D109290ED80C4A52F82100E7
:10411000C0F3090009E06846FCF712FB08490A6889
:1041200060F351420A6003E000208008ADF800000F
:10413000BDF80000A04200D0288038BD50C0014822
:104140008C0000180A4900200A680A4B1A4202D162
:104150004A68520400D501200A6844F240031A421A
:1041600002D14968490601D540F0020070470000BD
:1041700000400340000040402DE9FC5F04464FF042
:10418000E020D0F800013B494FF48048C0F380376D
:10419000C1F80080DFF8E0A05546DAF80860072093
:1041A000FCF77EFDA86820F48040A8600120FCF7A1
:1041B00083FD01254FF0090BCDE9005B5B462A46E4
:1041C00029462846FCF732FD4FF4AF60FDF7C3F8EF
:1041D0003F20FCF7F7FCDFF8A490D9F8000000F0CE
:1041E0000400800803D0207840F0040020700123F0
:1041F000CDE9005B1A4609211846FCF717FD4FF47C
:10420000AF6B5846FDF7A7F83F20FCF7DBFCD9F869
:10421000000000F00800C00803D0207840F008003B
:104220002070092301220095194610460195FCF7DC
:10423000FDFC5846FDF78FF83F20FCF7C3FCD9F88A
:10424000000000F02000400904D0207820F0300069
:10425000103020700021CAF80010CAF80410CAF803
:104260000860002F03D003498039C1F80080BDE801
:10427000FC9F000080E100E00040034058600050D7
:104280002DE9FC4104464FF0E020D0F80001304910
:104290004FF48048C0F38036C1F800802D4FBD68D0
:1042A000012000900346024601460190FCF7BEFC47
:1042B0000020FCF7F5FCB86820F48040B8600120CD
:1042C000FCF7FAFC092000900346024601460190E3
:1042D000FCF7ACFC4FF4FA70FDF73DF83F20FCF71B
:1042E00071FC1D48806D800626D01B48583001683F
:1042F00001F00401890809D1016801F00801C90829
:1043000004D1016801F02001490903D0217841F06E
:1043100001012170016811F0010F09D1016801F05C
:104320000201490804D1006800F01000000903D020
:10433000207840F00200207000203860BD60002E20
:1043400003D003498039C1F80080BDE8FC8100003A
:1043500080E100E000400340006000501CB50020F8
:1043600000900346024601460190FCF75FFC1CBD2D
:104370007CB500222E4983238B2460B1012848D0CC
:1043800002284AD003284DD00023009201921A46F9
:10439000194618463AE0264D40F2F31014352880AD
:1043A0002D1D28802D1D2880A1F85020204D2D1D69
:1043B00040222A8031F8402F22F4E04202F5405298
:1043C00021F82229CA8E22F00702CA86CA8C22F45A
:1043D0004052CA84CB8721F8164C154A58327A21AC
:1043E0001180134B28331988114A203281421080E2
:1043F00001D8401C18804FF480402880022028807B
:10440000032000900346024601460190FCF70EFC93
:104410007CBDA1F85C300C817CBDB020A1F85C00B3
:10442000B22003E08C20A1F85C00AC2008817CBDA8
:1044300000C0004010B5002303E0C45CCC545B1CFA
:104440009BB29342F9D310BD2DE9F041A848016811
:10445000002201F4E021090CA64D072923D00168B0
:1044600021F006010160016821F40011016001687A
:1044700041F080710160696A41F002016962696A14
:1044800041F400316962696941F00101696169695A
:1044900041F002016961696941F0040169610168E3
:1044A00041F006010160944991F87000934C430972
:1044B000206863F3000091F87030DB0863F341007B
:1044C00091F870309B0863F3820091F8703063F3C9
:1044D000C30091F870305B0863F304100B7A5B093A
:1044E00063F345100B7A1B0963F386100B7ADB0824
:1044F00063F3C7102060830603D4430601D4030688
:1045000007D50B7A23F008030B720B7A43F00103F3
:104510000B72097A090602D540F4807001E020F49C
:10452000807077498B695B0863F349208B69DB08EE
:1045300063F38A208B699B0863F3CB20206083059B
:1045400003D4430501D4030502D540F4805001E0B3
:1045500020F48050694E6B4F20600305A6F12006C1
:104560000AD5F389022B04D93B884B2B05D96A6302
:1045700003E05B1CF38100E0F2814A69D20602D4B9
:104580004969890602D540F4005001E020F400504A
:104590005A4A2060C0F340401E3A0A21FCF775FCDD
:1045A000216860F392412160A86D544AC0F3007005
:1045B0001C3A0521FCF769FC216860F3D3412160B6
:1045C000A86DC00007D5686D40F080506865686DC3
:1045D00040F480106865A86D484AC0F3C0601A3A7C
:1045E0000521FCF752FC216860F314512160A86D8D
:1045F000000107D5686D40F000606865686D40F4A3
:1046000000206865A86D3D4AC0F38060183A052116
:10461000FCF73BFC216860F355512160A86D400117
:1046200007D5686D40F080606865686D40F4802053
:104630006865A86D314AC0F34060163A0021FCF766
:1046400024FC216860F396512160A86D800107D594
:10465000686D40F000706865686D40F40030686512
:10466000A86D264AC0F30060143A0021FCF70DFC47
:10467000216860F3D7512160A86DC00107D5686D2E
:1046800040F080706865686D40F480306865308AFD
:10469000B0F57A7F02D20A30308209E0C80203D432
:1046A000480201D4080201D5012000E0002030704A
:1046B000C80414D4080312D4C80210D488020ED43B
:1046C00048020CD408020AD497F8280028B1C8057B
:1046D00005D4B7F90E00962801DCC80702D041F0D6
:1046E000807001E021F080702060BDE8F081000062
:1046F00000E0014800600050004000508C000018AD
:10470000008001486C02001800F060BFFFF7AABCEF
:1047100010B500F07AFABDE8104000F043B8000090
:104720002DE9F04100F076F8134E144F4FF0885405
:104730003168A6F1200560F39A61316020686969EB
:104740000844686100F042FF241DBC42F6D30C49C6
:1047500068690968884201D0012000E000203168C2
:1047600060F3DB61316000F00DF8316860F359618E
:104770003160BDE8F08100008C000018E8AF001146
:10478000E8AF0011054810B50068804720B904481B
:1047900000688047002800D0012010BD78870011F4
:1047A0007087001172B6012109480172002202725D
:1047B000017202720172027201720272017202725D
:1047C0000172027201720272017262B670470000D9
:1047D000004000500548017821F0040200210270D9
:1047E000024814300170001F0170704700400048FB
:1047F0000348007801020248001F00780843704710
:104800000C4000480248017941F0200101717047D5
:10481000004000482DE9F0471A4CE069E0614FF094
:104820005535E561E069A8421FD14600E661E069BF
:10483000B0421AD1E069E0614FF0C050124F04F16C
:10484000180804F11C09A061404513D0484511D057
:1048500000F0BCFEA0690168E16105600168A94241
:1048600003D106600168B14202D00120BDE8F087A3
:10487000E1690160A069001DA061B842E4D3002095
:10488000F4E700006C000018000C0018014900203B
:10489000486370470060005001480079704700008D
:1048A00000200248024A02211170111F087070474F
:1048B0000820024810B50A4C208820F040002080D3
:1048C0000949084809688847208840F0400020804E
:1048D000FFF758FF05490A6860F359620A6010BD86
:1048E0000800014000B00011748700118C0000180E
:1048F0002DE9F843144688460746002515E00D4E7D
:10490000308820F040010020318000907819012388
:1049100000224146FFF7B0F8308840F04000308078
:10492000802C04D3803CA4B28035002CE7D1BDE8B4
:10493000F883000008000140064844F21B01818012
:104940000321018200210180818841F4004181809E
:104950007047000000400248054801218180132172
:10496000018200210180818841F4004181807047EB
:1049700000600248012811D904280DD90A2807D956
:10498000142802D34FF6FF7004E04FF4FA6001E000
:104990004FF4FA7008807047C820FBE76420F9E7FD
:1049A0002DE9F0471F4608AB044693E82007002690
:1049B0001AB1322A03D2298022E02E8020E00100A1
:1049C00000D50021104601F095FE0146FA20B1FB0A
:1049D000F0F06FF07C02424311EB420102D07D29DE
:1049E00000D3401CB0F5004F01D347F6FF7000B272
:1049F0002880A04204DD0748844200DA04462C8067
:104A0000A8F80060012189F80010AAF80070BDE83C
:104A1000F08700000080FFFFF0B50126059C02250D
:104A2000277927B16779012F03D0A2B114E026714D
:104A300000E012B1657165800AE062888A4208D29E
:104A4000501C521CB2F5803F01D34FF6FF706080BE
:104A50002088188000E0667118882080F0BD002250
:104A60000A714A714A8002807047000010B5FCF755
:104A700091F802480168491C016010BDA8010018A6
:104A80004FF0E02049F64041416100218161016918
:104A900041F004010161016941F002010161016914
:104AA00041F0010101617047084910B54FF088508D
:104AB0000860FFF735FAFFF7E3FF00F06FFD0449E8
:104AC000002008760349087610BD000008ED00E0DC
:104AD00000400048005000481A4810B500784FF0D8
:104AE000402328B1D86E1849C0F30B00C88410BD0C
:104AF00016484069C188164C4FF6FF722180018923
:104B0000241D21804189241D2180114C103C40210D
:104B100021801C6C0F494C60DB6E8B600E490B785A
:104B200023F004030B70C089094B143BB3F87830B1
:104B3000C01A101A020A0A750874087840F00400B6
:104B4000087010BD250000186C020018F400001851
:104B500014C000400005001800500048174830B449
:104B6000007810B130BC00F093BA154841698889CB
:104B7000144B4FF6FF751C88124A083A844201D93B
:104B8000108009E04FF6FE74A04203D81080401C4C
:104B9000188001E014801D800A4A243A1014108005
:104BA0000888084B143B188048881B1D188088888B
:104BB000191D08804020108030BC70472500001867
:104BC000F400001828C000400648F321017380213A
:104BD0000172F5210175102101740171002101702C
:104BE00001767047005000480648FF2101730172AA
:104BF00001750174582101710921017003210176A9
:104C00007047000000400048704710B5FFF754FAA5
:104C1000FEF7EAFEFBF7A6FDFBF7E2FDFBF7D8FF88
:104C2000FCF7B0F8FCF7E6F8FEF776F8FEF714F9B3
:104C3000FEF770FAFEF7FEFEFFF77EFEFFF78CFE32
:104C4000FFF7D2FFFFF7C0FFFFF7DEFF00F096FB94
:104C500000F0CCFBFCF728F9BDE81040FEF7AEB839
:104C60002DE9F05F9946DDE90D630A9FDD790C9C23
:104C70004FF000084FF0010CBDB11D7A4FF0020E4D
:104C80004FF0030B4FF0FF3A012D15D0022D2CD021
:104C9000032D3ED0A04258DA1D88954255D383F8A3
:104CA00008B081F800A0BDE8F09F83F807C083F842
:104CB00008C083F80980F6E75A7A2AB193F906000A
:104CC0005045ECD0A8BB2FE0484502DD83F806C074
:104CD00006E0A04202DA83F806A001E083F806802D
:104CE0009879087083F809C0DDE7A04202DA1D88D0
:104CF0009542D4D2B84203DA9D880B9A954213D2DA
:104D00001A4A791E7F1E974200DA1146024609B2FE
:104D100027E0484502DD5C8894421BD2B04209DDA1
:104D20009C880B9A944205D30420187281F8008065
:104D3000B9E70FE0741C761CB6F5004F01DB47F6AF
:104D4000FF740246494620B20CE0484507DD5D8805
:104D5000954204D383F808E081F800C0A3E7024637
:104D600049462046BDE8F05F00F05ABB0080FFFFD7
:104D70000022CA710A720A804A808A808A714A7245
:104D80000270704710B500F00BF8044900208870DD
:104D9000487800B10120087010BD00002200001802
:104DA0002DE9FC5F0025B54E0095019570782C46E5
:104DB0000127E8B9B079D8B1401EB071FDF72AFDDE
:104DC000F071012815D10020FDF72AFD012810D12E
:104DD0000420FDF725FD05280BD10720FDF720FD58
:104DE000082806D17770B5710020FEF7B5FB00E00A
:104DF000B5717078012819D1FDF70CFDF071032809
:104E000005D0F570FFF7AAFAF079052800D03571C2
:104E1000C0B24FF0030A4FF002094FF0080B4FF0F9
:104E2000040801281FD0032834D07572002000F038
:104E300065FC5A2875D00021012000F067FC002194
:104E4000022000F063FC0021032000F05FFC002141
:104E5000042000F05BFC0021052000F057FC707A74
:104E6000012877D006E1777286F80A9005208DF840
:104E7000040006208DF800708DF805008DF8019073
:104E800007208DF802A08DF806008DF803808DF8BC
:104E900007B0CBE7FFF756F9B073307A032805D097
:104EA000F57235737573F77000F0F2F8F07AFF2839
:104EB00001D2401CF072C0B20428B7D9777286F8CC
:104EC0000A80717B6E4ADFF8BCC16F4843468DF89B
:104ED0000010052977D2DFE801F003253E559C003C
:104EE0007773107800F0F001DCF80000C0F307439E
:104EF00041EA13118DF80110C0F30341507861F3BA
:104F00001F108DF8020090788DF80300D0788DF88E
:104F1000040010798DF8050050798DF8060090791D
:104F200015E088E086F80D90D1798DF80110117A9E
:104F30008DF80210517A8DF80310917A8DF80410D3
:104F4000D17A8DF80510017C8DF80610807C8DF8E3
:104F500007006BE781E086F80DA0017D8DF8011058
:104F6000817D8DF80210017E8DF80310017F8DF890
:104F70000410817F8DF80510817E8DF80610807BEE
:104F80005030E4E77373017B50318DF80110C08C11
:104F90008DF80450010A8DF802108DF803003B488B
:104FA0008DF805500068410101D4810101D501212E
:104FB00000E00021CA01C10703D1010701D4C106E5
:104FC00002D5012101E033E0002142EA811281068D
:104FD00007D4410605D4010603D4810701D4410753
:104FE00001D5012100E0002142EA4111102202EA2C
:104FF000102211430BEA90300143B07B00B1012035
:1050000041EA80008DF806009CF80400C0F303100C
:105010009DE7307B18B175727573357306E78DF8AF
:1050200001508DF802508DF8035001953773FDE65D
:1050300075727573FAE60A21012000F067FB0A21F8
:10504000022000F063FB0A21032000F05FFB0A212D
:10505000042000F05BFB0A21FEE675726D462046D7
:10506000295DFDF7CDFC641CE4B2082CF7D3B07ABF
:10507000FDF74EFCF0793072BDE8FC9F220000186D
:10508000ECAF0011F06700116C0200188C000018E2
:1050900010B5074CE07848B16079FFF769F960799D
:1050A000401CC0B26071032801D90120607110BD9D
:1050B000220000182DE9F041FDF7ACFB10287DD14E
:1050C000002401252046FDF7ABFB8C4E7F2876D0CF
:1050D000F82873D10120FDF7A3FB07460146002005
:1050E000FDF78EFC38460121854F864A092823D2D8
:1050F000DFE800F0050C2343519CB1B6D300824C8D
:1051000002202188FDF76AFCA188A0E00620FDF7B7
:1051100087FB064601460120FDF772FC3019C0B23C
:10512000FBF71AFFC0F30721A01CC0B2FDF768FC13
:10513000641CE4B2062CF1D3A8E03068010E012013
:10514000FDF75EFC3068C0F307410220FDF758FC14
:105150003088C0F307210320FDF752FC317804208A
:10516000FDF74EFCB088010A0520FDF749FC3179B6
:105170000620FDF745FCF17952E0B2F90410012058
:10518000FDF71AFCB7F900100220FDF715FCB7F97E
:105190000210032061E0788900F00101788961F351
:1051A0005F007989C1F3400140EA810079891446A2
:1051B000C1F3800140EAC100917901E09BE072E017
:1051C000090110310843D179890140310843C1B246
:1051D0000120FDF715FCE07A217B40EA41014B48B4
:1051E0000079022820D003281ED00020627BC00056
:1051F00040EA82000143C9B20220FDF701FC002110
:105200000320FDF7FDFB00210420FDF7F9FB217AC7
:105210000520FDF7F5FB617A0620FDF7F1FBA17A89
:105220000720FDF7EDFB33E00120DFE7384C0120DC
:10523000B4F90C10FDF7C0FBB4F90E100220FDF715
:10524000BBFB608800EB400101EBC00081B2032092
:10525000FDF7C4FB1CE000210120FDF7ADFB17E0CA
:105260000620FDF7DDFA064601460120FDF7C8FBE2
:105270003019C0B2FBF770FE00F07F01A01CC0B275
:10528000FDF7BEFB641CE4B2062CF1D3002D32D036
:10529000BDE8F0412020FDF73BBB1E480170012016
:1052A000FDF7C8FAF4E73068010E0020FDF7A8FB0F
:1052B0003068C0F307410120FDF7A2FBB088010B65
:1052C0000220FDF79DFBB088C0F303210320FDF70A
:1052D00097FBB07900F00F010420FDF791FB3079C6
:1052E00000F00F010520FDF78BFBFF210620FDF7E5
:1052F00087FBFF2194E7BDE8F0810000F067001113
:10530000980200180C06001836000018DC0000187F
:105310006C02001890000018FEF77CBDFEF7CEBDB1
:1053200070B54FF0502090F83000400609D5104875
:105330000078C00705D000F037F80D49083101208A
:1053400008700C4C207E0C4D800706D52078000696
:1053500003D5FFF7E3FF80202870207EC00706D02A
:105360002078400603D5FFF7D7FF4020287070BD96
:1053700000000248004000481C4000480849402006
:1053800008704FF05020002100F8881F1022027290
:10539000462202710170034928200860704700000E
:1053A000000002489C01001800F016BB70B54FF0D9
:1053B000502595F834000B4E0B4C400606D530783E
:1053C000C00703D000F028F80120207095F83400C1
:1053D000000606D53078800703D500F01FF80220BC
:1053E000207070BD00200248082002480849502063
:1053F00008704FF05020002100F8981F2021017202
:105400008D21017101210170024928200860704737
:1054100000200248A0010018FDF714BAFDF790BA69
:10542000F0B54FF6FF76771C0025824209DA18881E
:105430000146401C491CB94200D3304618805D80AB
:1054400011E08A421D8007DD5C88601C641CB84244
:1054500000D334465C8006E05D809D88681C6D1C2E
:10546000B84200D335469D80F0BDF0B54FF6FF76CB
:10547000771C0025824209DA18880146401C491C25
:10548000B94200D3304618805D8011E08A421D8009
:1054900007DD5C88601C641CB84200D334465C8025
:1054A00006E05D809D88681C6D1CB84200D33546BF
:1054B0009D80F0BD70472DE9F041D379002501248E
:1054C000B3B1137A0227A61E4FF0030C4FF0040E5F
:1054D000012B11D0022B24D0032B30D0502842DADC
:1054E0001388322B47D382F808C00E70BDE8F081D4
:1054F000D47114725572F9E7537A2BB192F9060000
:10550000B042F0D070BB24E0B42801DD947104E017
:10551000502801DA967100E0957190790870547204
:10552000E4E7502802DA1388322BDCD2AA2802DA08
:105530009388322B0DD213460246A9211EE0B428CF
:1055400002DD5388322B13D25A2806DD9388322B82
:1055500003D382F808E00D70C8E713460246B42171
:105560005B200CE004E0B42805DD5388322B02D325
:1055700017720C70BAE713460246B4215020BDE8FA
:10558000F041FFF772BF0022CA710A720A804A8096
:105590008A808A714A7202707047000003493F2076
:1055A000486303480021416001707047006000506B
:1055B000A401001803498007000E48630249012036
:1055C0000870704700600050A401001808490020CE
:1055D0004A68B2F52F7F02D20A78012A06D1054A1D
:1055E0003F20506300204860087001207047000091
:1055F000A4010018006000504FF0E020016921F084
:1056000001010161704702E008C8121F08C1002AA9
:10561000FAD170477047002001E001C1121F002A33
:10562000FBD17047002801DBC8407047C043C84029
:10563000C043704730B50C460546114600F0AAFE3F
:10564000024901EBC5004068047030BDB886001106
:1056500070B5094D0A44D2B20C4605EBC00008E013
:1056600045689E18521E2D5D641C06F8015CD2B27E
:10567000E4B28A42F4D870BDB8860011F0B50D4688
:105680001E4614460746059900F084FE6019084935
:10569000C0B22C4601EBC70106E0325D401E4B68EC
:1056A000641CE4B21A54C0B2A842F6D8F0BD00009F
:1056B000B886001100F034B910B500F0CCFB002022
:1056C00010BD0000034901EBC0004068008840BAEB
:1056D00070470000B886001130B50C4605461146EB
:1056E00000F058FE0449220A01EBC50041680A7027
:1056F0004068447030BD0000B8860011024901EBDB
:10570000C000406800787047B8860011014A1278DE
:1057100000F002B89A01001830B50C460546114653
:1057200000F038FE024901EBC5004068047030BD4E
:10573000B886001102465220202A0AD12120087082
:1057400022204870232088702420C87025200871EA
:105750005420704710B500F0B9FEBDE8104000F0CD
:105760005BBB3C2901D07D2900D10021027809E0F2
:1057700010F8013F194489B2FF2901D9FF3989B2D4
:10578000521ED2B2002AF3D1C843C0B27047000003
:105790002DE9F041184807210668F278101D40B243
:1057A00090420BDD735CFF2B04D0022802DD102237
:1057B000002119E0491E49B2401EF0E70425521CA1
:1057C0000E4F54B24FF0FF08705D90B1FF2803D028
:1057D000012100F068FB38556D1C641C6DB264B289
:1057E000082DF1DB00220121BDE8F041B72000F0D7
:1057F0002DBD07F80480EFE7780100185701001865
:10580000164830B4006841790A0201791143C2791F
:10581000130282791A43124B1C888C4203D0A1F5E3
:10582000FE44FF3C06D15988914208D0A2F57F4141
:10583000FF3904D00B490020087030BC7047C27893
:105840001AB1A2F120001F2801D8012101E0122283
:10585000002130BCB22000F0F9BC00007801001833
:10586000628700116E010018064A0421535CA1F101
:105870000101834201D1C8B2704711F0FF01F5D197
:10588000FF207047570100180948017821F00401F2
:10589000017010384FF47A61C1814FF0502111F836
:1058A000942F22F001020A7000214170704700001D
:1058B0008C01001870B504460D460846FFF7D4FF6A
:1058C0000E49E41E052C487011D2DFE804F01003E5
:1058D000030303000A4911F83000012802D00949E6
:1058E000012008703C2D02D107490020087000F00B
:1058F00041FD2846BDE8704000F0E8BD9801001861
:1059000030870011700100186E01001803480078FC
:10591000052801D800F022B870470000B4860011B5
:10592000044810B50078052802D8002000F018F8C7
:10593000002010BDB4860011044910B5097805296E
:1059400001D800F0F1F9002010BD0000B48600116C
:1059500001484078704700007C010018FFF794BFB1
:105960001A4908701A4888614FF0502010F8881FB3
:1059700041F001010170017B21F00601891C0173D6
:10598000017B41F040010173017B41F00101017392
:10599000017B21F001010173017F41F008010177D2
:1059A000017F41F010010177017F41F02001017773
:1059B00008490A7842F010020A7010F8581C41F0A9
:1059C000400100F8581CFFF75FBF00007C01001881
:1059D00034060018000002482DE9F05F4FF0502611
:1059E00096F89400CD4DDFF838B3CE4FC0064FF097
:1059F000010A4FF00403A5F1100814D596F8A4008D
:105A000040F0080086F8A40096F8A40040F01000CA
:105A100086F8A4002B70BBF80E00A8F80A0003203B
:105A200088F8010023E096F8940080060ED596F8D9
:105A3000A40040F0080086F8A40096F8A40040F006
:105A4000200086F8A400FFF71FFF10E038788007D9
:105A50000DD53878C0070AD098F805003979884202
:105A600005D098F80100072814D0082812D03878FB
:105A7000C00745D03878400742D498F801000A287A
:105A80003ED0E0B398F80810502921D2491C88F87C
:105A900008101FE0397A41F002013972397A41F079
:105AA0000101397298F80810502903D2491C88F86E
:105AB000081001E088F807A02978072841F02201A2
:105AC000297001D008285DD198F80310062057E00E
:105AD00088F807A02978062841F00A01297003D028
